10076534820001283889967790072 MERCEARIA VANDERLEI DE OLIVEIRA LTDLUZ                           MG00000000002020010120200131331
11PCA. JOAO BATISTA DO COUTO        00017                      CENTRO         35595000VANDERLEI                   000000003261
50171595180001751860015820028 20200104MG550019957471102T000000006876700000000000000000000000000000000000000000000000000000000N
50018387230194990010870820451 20200105MG550022147181403T000000003108000000000000000000000000000000000000000000000000000000000N
50237973760001745210278810023 20200106MG550003208321102T000000000924500000000000000000000000000000000000000000000000000000000N
50237973760001745210278810023 20200106MG550003208321910T000000003186000000000000000000000000000000000000000000000000000000000N
50219929460057063720734595700 20200107MG550023908861102T000000008025600000000000000000000000000000000000000000000000000000000N
50103037890001030010875840086 20200107MG550018891861102T000000012190400000000000000000000000000000000000000000000000000000000N
50330099110103631860007472598 20200107MG550288856531403T000000010462600000000000000000000000000000000000000000000000000000000N
50249908530001860027766650002 20200108MG550010474991102T000000002468000000000000000000000000000000000000000000000000000000000N
50249908530001860027766650002 20200108MG550010475001949T000000000188900000000000000000000000000000000000000000000000000000000N
50184236810003283721388480076 20200108MG550040014211102T000000025752600000000000000000000000000000000000000000000000000000000N
50061064750001436182788010003 20200108MG550010527581102T000000005281700000000000000000000000000000000000000000000000000000000N
50046950850001202231492020053 20200109MG550017536161102T000000024100100000000000000000000000000000000000000000000000000000000N
50256815290001490626085650034 20200109MG550019517031102T000000003016400000000000000000000000000000000000000000000000000000000N
50050177800034647201767451978 20200109MG550018871701102T000000002655000000000000000000000000000000000000000000000000000000000N
50050177800032007201767451897 20200109MG550015740911403T000000003685700000000000000000000000000000000000000000000000000000000N
50014928570001390629468770035 20200109MG550018486941102T000000007298400000000000000000000000000000000000000000000000000000000N
50734103260114480418977080471 20200110MG550016176751403T000000006729400000000000000000000000000000000000000000000000000000000N
50236370770014975180502821153 20200112MG550015568611102T000000013346400000000000000000000000000000000000000000000000000000000N
50018387230194990010870820451 20200113MG550022304321403T000000005477600000000000000000000000000000000000000000000000000000000N
50184236810003283721388480076 20200114MG550040035551102T000000010723100000000000000000000000000000000000000000000000000000000N
50103037890001030010875840086 20200114MG550018934101102T000000007993200000000000000000000000000000000000000000000000000000000N
50073996360001051863483540086 20200116MG550029064671403T000000003945000000000000000000000000000000000000000000000000000000000N
50734103260114480418977080471 20200117MG550016203441403T000000000214700000000000000000000000000000000000000000000000000000000N
50073996360001051863483540086 20200117MG550017727431910T000000000429400000000000000000000000000000000000000000000000000000000N
50000705090028200628853602685 20200117MG550021599501102T000000003405600000000000000000000000000000000000000000000000000000000N
50073996360001051863483540086 20200117MG550017727441403T000000003692200000000000000000000000000000000000000000000000000000000N
50604090750103871860022639589 20200120MG550013006351403T000000001319600000000000000000000000000000000000000000000000000000000N
50604090750103871860022639589 20200120MG550013006341102T000000002894200000000000000000000000000000000000000000000000000000000N
50330099110103631860007472598 20200120MG550289038341403T000000010805900000000000000000000000000000000000000000000000000000000N
50256815290001490626085650034 20200121MG550019609451102T000000008025000000000000000000000000000000000000000000000000000000000N
50018387230194990010870820451 20200121MG550022496701403T000000001813100000000000000000000000000000000000000000000000000000000N
50249908530001860027766650002 20200121MG550010483121102T000000002984700000000000000000000000000000000000000000000000000000000N
50184236810003283721388480076 20200122MG550040076461102T000000006015300000000000000000000000000000000000000000000000000000000N
50050177800034647201767451978 20200123MG550018960331102T000000008663200000000000000000000000000000000000000000000000000000000N
50103037890001030010875840086 20200123MG550018985921102T000000006755400000000000000000000000000000000000000000000000000000000N
50734103260114480418977080471 20200124MG550016229911403T000000000831700000000000000000000000000000000000000000000000000000000N
50194115600001672612141870015 20200124MG550019487431102T000000015156000000000000000000000000000000000000000000000000000000000N
50200615910001140023415740005 20200124MG550012313831401T000000003892400000000000000000000000000000000000000000000000000000000N
50014562070001380749843060021 20200127MG550011244991102T000000000919000000000000000000000000000000000000000000000000000000000N
50216285160001557024828340000 20200127MG550056559951102T000000008535000000000000000000000000000000000000000000000000000000000N
50620002780045370624763450254 20200127MG551240916811102T000000005820000000000000000000000000000000000000000000000000000000000N
50620002780045370624763450254 20200127MG551240916801910T000000000566000000000000000000000000000000000000000000000000000000000N
50061064750001436182788010003 20200128MG550010532961102T000000001455600000000000000000000000000000000000000000000000000000000N
50018387230194990010870820451 20200128MG550022655321403T000000004097300000000000000000000000000000000000000000000000000000000N
50184236810003283721388480076 20200129MG550040104701102T000000024316200000000000000000000000000000000000000000000000000000000N
50103037890001030010875840086 20200129MG550019014471102T000000009312500000000000000000000000000000000000000000000000000000000N
50103037890001030010875840086 20200131MG550019014461102T000000007292600000000000000000000000000000000000000000000000000000000N
53171595180001751860015820028 20200104MG550019957471102T000000001532600000000007730000000000000N                              
53018387230194990010870820451 20200105MG550022147181403T000000003947200000000018420000000000000N                              
53237973760001745210278810023 20200106MG550003208321910T000000001761300000000027550000000000000N                              
53219929460057063720734595700 20200107MG550023908861102T000000002191500000000018840000000000000N                              
53330099110103631860007472598 20200107MG550288856531403T000000011500000000000034590000000000000N                              
53050177800032007201767451897 20200109MG550015740911403T000000004430700000000040370000000000000N                              
53734103260114480418977080471 20200110MG550016176751403T000000009948000000000169090000000000000N                              
53018387230194990010870820451 20200113MG550022304321403T000000006956600000000032460000000000000N                              
53073996360001051863483540086 20200116MG550029064671403T000000005019900000000063740000000000000N                              
53734103260114480418977080471 20200117MG550016203441403T000000000242400000000002070000000000000N                              
53073996360001051863483540086 20200117MG550017727431910T000000000485400000000004390000000000000N                              
53073996360001051863483540086 20200117MG550017727441403T000000004106700000000047490000000000000N                              
53604090750103871860022639589 20200120MG550013006351403T000000001633300000000006870000000000000N                              
53330099110103631860007472598 20200120MG550289038341403T000000011875000000000035650000000000000N                              
53018387230194990010870820451 20200121MG550022496701403T000000001566100000000007310000000000000N                              
53734103260114480418977080471 20200124MG550016229911403T000000001009200000000011910000000000000N                              
53200615910001140023415740005 20200124MG550012313831401T000000001722800000000004040000000000000N                              
53018387230194990010870820451 20200128MG550022655321403T000000005203400000000024290000000000000N                              
54000705090028205500215995011025600015668          000000060000000000083940000000000000000000000000000000000000000000000000000
54000705090028205500215995011020600027501          000000060000000000085540000000000000000000000000000000000000000000000000000
54000705090028205500215995011020600037502          000000060000000000085540000000000000000000000000000000000000000000000000000
54000705090028205500215995011020600047818          000000060000000000085540000000000000000000000000000000000000000000000000000
54014562070001385500112449911020200014836          000000200000000000091900000000000000000000000000000000000000000000000000000
54014928570001395500184869411020000015676          000000120000000000231760000000000000000000000000000000000000000000000000000
54014928570001395500184869411020000027828          000000060000000000059940000000000000000000000000000000000000000000000000000
54014928570001395500184869411020000037829          000000200000000000075800000000000000000000000000000000000000000000000000000
54014928570001395500184869411020600046761          000000060000000000017940000000000000000000000000000000000000000000000000000
54014928570001395500184869411020600057830          000000060000000000170500000000000000000000000000000000000000000000000000000
54014928570001395500184869411020600067831          000000030000000000085250000000000000000000000000000000000000000000000000000
54014928570001395500184869411020000077678          000000120000000000083760000000000000000000000000000000000000000000000000000
5401492857000139550018486941102   991              000000000000000000000000000000004890000000000000000000000000000000000000000
54018387230194995500221471814030100017792          000000080000000000089360000000000000000000000000000000120640000000000000000
54018387230194995500221471814030100024613          000000140000000000080220000000000000000000000000000000108300000000000000000
54018387230194995500221471814030100033786          000000200000000000122800000000000000000000000000000000165780000000000000000
54018387230194995500223043214030100014613          000000131000000000075980000000000000000000000000000000102570000000000000000
54018387230194995500223043214030100025263          000000240000000000348720000000000000000000000000000000470780000000000000000
54018387230194995500223043214030100036314          000000150000000000045300000000000000000000000000000000061160000000000000000
54018387230194995500223043214030100046315          000000150000000000045300000000000000000000000000000000061160000000000000000
54018387230194995500224967014030700015497          000000150000000000174000000000000000000000000000000000156610000000000000000
54018387230194995500226553214030100014613          000000280000000000160440000000000000000000000000000000216590000000000000000
54018387230194995500226553214030100025639          000000150000000000225000000000000000000000000000000000303750000000000000000
5404695085000120550017536161102000001249           000000900000000001320000000000000000000000000000000000000000000000000000000
54046950850001205500175361611020000026896          000000600000000000700000000000000000000000000000000000000000000000000000000
54046950850001205500175361611020600037602          000000900000000000390010000000000000000000000000000000000000000000000000000
5405017780003200550015740911403070001372           000000200000000000328200000000000000000000000000000000443070000000000000000
54050177800034645500188717011020600017771          000000450000000000265500000000000000000000000000000000000000000000000000000
54050177800034645500189603311020600017411          000000300000000000585000000000000000000000000000000000000000000000000000000
54050177800034645500189603311020600027813          000000100000000000159600000000000000000000000000000000000000000000000000000
54050177800034645500189603311020600037814          000000120000000000121720000000000000000000000000000000000000000000000000000
54061064750001435500105275811020600017754          000000120000000000047400000000000000000000000000000000000000000000000000000
54061064750001435500105275811020600027784          000000720000000000042480000000000000000000000000000000000000000000000000000
54061064750001435500105275811020600037755          000000120000000000065520000000000000000000000000000000000000000000000000000
54061064750001435500105275811020600047756          000000240000000000146160000000000000000000000000000000000000000000000000000
54061064750001435500105275811020600057798          000000060000000000022740000000000000000000000000000000000000000000000000000
54061064750001435500105275811020600067799          000000540000000000180900000000000000000000000000000000000000000000000000000
54061064750001435500105275811020600077800          000000030000000000020970000000000000000000000000000000000000000000000000000
5406106475000143550010527581102   991              000000000000000000000000000000002000000000000000000000000000000000000000000
54061064750001435500105329611020600017755          000000120000000000065520000000000000000000000000000000000000000000000000000
54061064750001435500105329611020600027798          000000120000000000045480000000000000000000000000000000000000000000000000000
54061064750001435500105329611020600037815          000000540000000000034560000000000000000000000000000000000000000000000000000
54073996360001055500177274319100100017817          000000240000000000038550000000000000000000000000000000048540000000000000000
54073996360001055500177274414030100017819          000000120000000000011310000000000000000000000000000000014440000000000000000
54073996360001055500177274414030100027548          000000720000000000115640000000000000000000000000000000147610000000000000000
54073996360001055500177274414030100037108          000000720000000000115640000000000000000000000000000000147610000000000000000
54073996360001055500177274414030100044989          000000030000000000026380000000000000000000000000000000033670000000000000000
54073996360001055500177274414030100054733          000000030000000000026380000000000000000000000000000000033670000000000000000
54073996360001055500177274414030100065287          000000030000000000026380000000000000000000000000000000033670000000000000000
54073996360001055500290646714032100015131          000000240000000000097730000000000000000000000000000000148320000000000000000
54073996360001055500290646714030100027405          000000120000000000047820000000000000000000000000000000072580000000000000000
54073996360001055500290646714030100034804          000000400000000000185210000000000000000000000000000000281090000000000000000
54103037890001035500188918611020600017367          000000240000000000106180000000000000000000000000000000000000000000000000000
54103037890001035500188918611020600027794          000000240000000000117120000000000000000000000000000000000000000000000000000
54103037890001035500188918611020600037793          000000600000000000418800000000000000000000000000000000000000000000000000000
54103037890001035500188918611020600046127          000000060000000000189840000000000000000000000000000000000000000000000000000
54103037890001035500188918611020600054926          000000480000000000222000000000000000000000000000000000000000000000000000000
54103037890001035500188918611020600067795          000000240000000000047470000000000000000000000000000000000000000000000000000
54103037890001035500188918611020600076602          000000150000000000115830000000000000000000000000000000000000000000000000000
5410303789000103550018891861102   991              000000000000000000000000000000001800000000000000000000000000000000000000000
54103037890001035500189341011020000017805          000000240000000000134580000000000000000000000000000000000000000000000000000
54103037890001035500189341011020600022801          000000480000000000264840000000000000000000000000000000000000000000000000000
54103037890001035500189341011020600037806          000001600000000000398100000000000000000000000000000000000000000000000000000
5410303789000103550018934101102   991              000000000000000000000000000000001800000000000000000000000000000000000000000
54103037890001035500189859211020600015979          000000120000000000016080000000000000000000000000000000000000000000000000000
54103037890001035500189859211020600027811          000000120000000000016080000000000000000000000000000000000000000000000000000
54103037890001035500189859211020600037506          000000240000000000106180000000000000000000000000000000000000000000000000000
54103037890001035500189859211020600047405          000000120000000000060170000000000000000000000000000000000000000000000000000
54103037890001035500189859211020000057812          000000360000000000029530000000000000000000000000000000000000000000000000000
54103037890001035500189859211020600064770          000000060000000000029580000000000000000000000000000000000000000000000000000
54103037890001035500189859211020600074850          000000060000000000029580000000000000000000000000000000000000000000000000000
54103037890001035500189859211020600082656          000000060000000000029580000000000000000000000000000000000000000000000000000
54103037890001035500189859211020600094802          000000060000000000029580000000000000000000000000000000000000000000000000000
54103037890001035500189859211020600102665          000000060000000000029580000000000000000000000000000000000000000000000000000
54103037890001035500189859211020600114803          000000060000000000029580000000000000000000000000000000000000000000000000000
5410303789000103550018985921102060012462           000000120000000000065420000000000000000000000000000000000000000000000000000
54103037890001035500189859211020600135920          000000120000000000040560000000000000000000000000000000000000000000000000000
54103037890001035500189859211020600143950          000000480000000000162240000000000000000000000000000000000000000000000000000
5410303789000103550018985921102   991              000000000000000000000000000000001800000000000000000000000000000000000000000
54103037890001035500190144611020600014585          000000360000000000078180000000000000000000000000000000000000000000000000000
54103037890001035500190144611020000024617          000001200000000000282480000000000000000000000000000000000000000000000000000
54103037890001035500190144611020600035201          000000090000000000126560000000000000000000000000000000000000000000000000000
54103037890001035500190144611020600047499          000000200000000000112610000000000000000000000000000000000000000000000000000
54103037890001035500190144611020600057500          000000200000000000127630000000000000000000000000000000000000000000000000000
5410303789000103550019014461102   991              000000000000000000000000000000001800000000000000000000000000000000000000000
54103037890001035500190144711020600014944          000002400000000000405500000000000000000000000000000000000000000000000000000
54103037890001035500190144711020600027820          000000720000000000152820000000000000000000000000000000000000000000000000000
54103037890001035500190144711020000037821          000000040000000000016680000000000000000000000000000000000000000000000000000
54103037890001035500190144711020000047822          000000040000000000016680000000000000000000000000000000000000000000000000000
54103037890001035500190144711020000057823          000000040000000000016680000000000000000000000000000000000000000000000000000
54103037890001035500190144711020000064711          000000040000000000016680000000000000000000000000000000000000000000000000000
54103037890001035500190144711020000077824          000000040000000000016680000000000000000000000000000000000000000000000000000
54103037890001035500190144711020600087825          000000030000000000012510000000000000000000000000000000000000000000000000000
54103037890001035500190144711020000097826          000000030000000000012510000000000000000000000000000000000000000000000000000
54103037890001035500190144711020000107827          000000040000000000016680000000000000000000000000000000000000000000000000000
54103037890001035500190144711020000111043          000000240000000000051480000000000000000000000000000000000000000000000000000
54103037890001035500190144711020600122832          000000360000000000134490000000000000000000000000000000000000000000000000000
54103037890001035500190144711020600136955          000000060000000000060060000000000000000000000000000000000000000000000000000
5410303789000103550019014471102   991              000000000000000000000000000000001800000000000000000000000000000000000000000
54171595180001755500199574711020000015722          000000120000000000017230000000000000000000000000000000000000000000000000000
54171595180001755500199574711020000024811          000000240000000000034450000000000000000000000000000000000000000000000000000
54171595180001755500199574711020000034717          000000600000000000086140000000000000000000000000000000000000000000000000000
54171595180001755500199574711020000045721          000000360000000000051680000000000000000000000000000000000000000000000000000
54171595180001755500199574711020700055791          000000450000000000173520000000000000000000000000000000093730000000000000000
54171595180001755500199574711020700066784          000000120000000000027550000000000000000000000000000000014880000000000000000
54171595180001755500199574711020700077802          000000120000000000027550000000000000000000000000000000014880000000000000000
54171595180001755500199574711020700082907          000000120000000000027550000000000000000000000000000000014880000000000000000
54171595180001755500199574711020700092901          000000120000000000027550000000000000000000000000000000014880000000000000000
54171595180001755500199574711020000105728          000000240000000000034450000000000000000000000000000000000000000000000000000
54171595180001755500199574711020000115842          000000120000000000017230000000000000000000000000000000000000000000000000000
54171595180001755500199574711020000125723          000000600000000000086140000000000000000000000000000000000000000000000000000
54171595180001755500199574711020000135724          000000240000000000034450000000000000000000000000000000000000000000000000000
54171595180001755500199574711020000145843          000000240000000000034450000000000000000000000000000000000000000000000000000
54184236810003285500400142111020600016776          000000300000000000102250000000000000000000000000000000000000000000000000000
54184236810003285500400142111020600027603          000001200000000000303530000000000000000000000000000000000000000000000000000
54184236810003285500400142111020600036765          000000200000000000531230000000000000000000000000000000000000000000000000000
54184236810003285500400142111020600047220          000000480000000000152470000000000000000000000000000000000000000000000000000
54184236810003285500400142111020600055631          000000150000000000413850000000000000000000000000000000000000000000000000000
5418423681000328550040014211102060006872           000000500000000001071930000000000000000000000000000000000000000000000000000
54184236810003285500400355511020600015167          000000480000000000115680000000000000000000000000000000000000000000000000000
54184236810003285500400355511020600026815          000000240000000000057540000000000000000000000000000000000000000000000000000
54184236810003285500400355511020600035523          000000600000000000102250000000000000000000000000000000000000000000000000000
54184236810003285500400355511020600047219          000001800000000000796840000000000000000000000000000000000000000000000000000
54184236810003285500400764611020600017116          000000240000000000069940000000000000000000000000000000000000000000000000000
54184236810003285500400764611020600025607          000000180000000000076600000000000000000000000000000000000000000000000000000
54184236810003285500400764611020600036704          000000050000000000137950000000000000000000000000000000000000000000000000000
54184236810003285500400764611020600047603          000001200000000000317040000000000000000000000000000000000000000000000000000
54184236810003285500401047011020600016854          000000240000000000052280000000000000000000000000000000000000000000000000000
54184236810003285500401047011020600023453          000000240000000000020090000000000000000000000000000000000000000000000000000
54184236810003285500401047011020600036765          000000100000000000265610000000000000000000000000000000000000000000000000000
54184236810003285500401047011020600045631          000000100000000000275900000000000000000000000000000000000000000000000000000
5418423681000328550040104701102060005872           000000700000000001500700000000000000000000000000000000000000000000000000000
54184236810003285500401047011020600067603          000001200000000000317040000000000000000000000000000000000000000000000000000
54194115600001675500194874311020600013030          000004000000000001515600000000000000000000000000000000000000000000000000000
54200615910001145500123138314010700016889          000000240000000000232800000000000000000000000000000000104120000000000000000
54200615910001145500123138314010700026938          000000120000000000080400000000000000000000000000000000035960000000000000000
54200615910001145500123138314010700037511          000000120000000000072000000000000000000000000000000000032200000000000000000
54216285160001555500565599511020600015486          000001500000000000853500000000000000000000000000000000000000000000000000000
54219929460057065500239088611020600012539          000002400000000000612000000000000000000000000000000000000000000000000000000
54219929460057065500239088611020700025461          000000540000000000090000000000000000000000000000000000114860000000000000000
54219929460057065500239088611020700035460          000000270000000000081720000000000000000000000000000000104290000000000000000
54236370770014975500155686111020600017803          000000180000000000090420000000000000000000000000000000000000000000000000000
5423637077001497550015568611102000002416           000000360000000000286560000000000000000000000000000000000000000000000000000
542363707700149755001556861110200000382            000000480000000000166120000000000000000000000000000000000000000000000000000
54236370770014975500155686111020600045284          000000090000000000134040000000000000000000000000000000000000000000000000000
54236370770014975500155686111020000057225          000000480000000000085040000000000000000000000000000000000000000000000000000
54236370770014975500155686111020000067804          000000600000000000046530000000000000000000000000000000000000000000000000000
54236370770014975500155686111020600076026          000000120000000000069220000000000000000000000000000000000000000000000000000
54236370770014975500155686111020600085881          000000120000000000069220000000000000000000000000000000000000000000000000000
54236370770014975500155686111020600095933          000000120000000000069220000000000000000000000000000000000000000000000000000
54236370770014975500155686111020600105928          000000120000000000069220000000000000000000000000000000000000000000000000000
54236370770014975500155686111020000115844          000000360000000000247290000000000000000000000000000000000000000000000000000
5423637077001497550015568611102   991              000000000000000000000000000000001760000000000000000000000000000000000000000
54237973760001745500032083211020000015074          000000060000000000092450000000000000000000000000000000000000000000000000000
54237973760001745500032083219100000027796          000000010000000000145250000000000000000000000000000000000000000000000000000
54237973760001745500032083219102700037797          000000050000000000145800000000000000000000000000000000176130000000000000000
54249908530001865500104749911020600017022          000000840000000000057960000000000000000000000000000000000000000000000000000
54249908530001865500104749911020600027801          000000050000000000014000000000000000000000000000000000000000000000000000000
54249908530001865500104749911020600037021          000000030000000000012180000000000000000000000000000000000000000000000000000
54249908530001865500104749911020600047293          000000030000000000016620000000000000000000000000000000000000000000000000000
54249908530001865500104749911020600057023          000000360000000000124000000000000000000000000000000000000000000000000000000
54249908530001865500104749911020600067183          000000040000000000022040000000000000000000000000000000000000000000000000000
54249908530001865500104750019490600017801          000000020000000000005860000000000000000000000000000000000000000000000000000
54249908530001865500104750019490600027021          000000020000000000008360000000000000000000000000000000000000000000000000000
54249908530001865500104750019490000037111          000000020000000000004670000000000000000000000000000000000000000000000000000
54249908530001865500104831211020600017183          000000060000000000033060000000000000000000000000000000000000000000000000000
54249908530001865500104831211020600027021          000000060000000000024360000000000000000000000000000000000000000000000000000
54249908530001865500104831211020600037569          000000030000000000024690000000000000000000000000000000000000000000000000000
54249908530001865500104831211020600047816          000000140000000000216360000000000000000000000000000000000000000000000000000
54256815290001495500195170311020600014816          000000240000000000085170000000000000000000000000000000000000000000000000000
54256815290001495500195170311020600024817          000000240000000000085170000000000000000000000000000000000000000000000000000
54256815290001495500195170311020600036137          000000240000000000074400000000000000000000000000000000000000000000000000000
54256815290001495500195170311020600047748          000000120000000000056900000000000000000000000000000000000000000000000000000
54256815290001495500196094511020600014816          000000240000000000085170000000000000000000000000000000000000000000000000000
54256815290001495500196094511020600024817          000000240000000000085170000000000000000000000000000000000000000000000000000
54256815290001495500196094511020600036235          000000270000000000096620000000000000000000000000000000000000000000000000000
54256815290001495500196094511020600044819          000000270000000000096620000000000000000000000000000000000000000000000000000
54256815290001495500196094511020600056073          000000240000000000194880000000000000000000000000000000000000000000000000000
54256815290001495500196094511020600066494          000000120000000000135480000000000000000000000000000000000000000000000000000
54256815290001495500196094511020600076117          000000240000000000108560000000000000000000000000000000000000000000000000000
5433009911010363550288856531403010001991           000000200000000000119790000000000000000000000000000000136170000000000000000
54330099110103635502888565314030100026451          000000400000000000319560000000000000000000000000000000363250000000000000000
54330099110103635502888565314030100035498          000000600000000000385990000000000000000000000000000000438770000000000000000
54330099110103635502888565314030100047291          000000400000000000186330000000000000000000000000000000211810000000000000000
5433009911010363550289038341403010001993           000000100000000000059890000000000000000000000000000000068060000000000000000
54330099110103635502890383414030100026451          000000400000000000319560000000000000000000000000000000363160000000000000000
54330099110103635502890383414030100035498          000000600000000000385990000000000000000000000000000000438650000000000000000
54330099110103635502890383414030100047292          000000200000000000093170000000000000000000000000000000105880000000000000000
54330099110103635502890383414030100057291          000000400000000000186330000000000000000000000000000000211750000000000000000
5460409075010387550013006341102560001943           000000300000000000029750000000000000000000000000000000000000000000000000000
54604090750103875500130063411025600027671          000000200000000000040990000000000000000000000000000000000000000000000000000
54604090750103875500130063411025600037809          000000140000000000052350000000000000000000000000000000000000000000000000000
54604090750103875500130063411020600047810          000000200000000000166330000000000000000000000000000000000000000000000000000
54604090750103875500130063514035100015636          000000160000000000023990000000000000000000000000000000031320000000000000000
54604090750103875500130063514035100025127          000000120000000000023250000000000000000000000000000000030360000000000000000
54604090750103875500130063514035100035299          000000060000000000041320000000000000000000000000000000053950000000000000000
546040907501038755001300635140351000459            000000270000000000036530000000000000000000000000000000047700000000000000000
54620002780045375512409168019100200016303          000000100000000000056600000000000000000000000000000000000000000000000000000
54620002780045375512409168111020200016303          000001000000000000582000000000000000000000000000000000000000000000000000000
54734103260114485500161767514035100015367          000000120000000000027450000000000000000000000000000000056640000000001240000
54734103260114485500161767514035100024757          000000300000000000454700000000000000000000000000000000938160000000020460000
54734103260114485500162034414035100016740          000000120000000000019110000000000000000000000000000000024240000000000290000
54734103260114485500162299114035100017807          000000120000000000024170000000000000000000000000000000035560000000000940000
54734103260114485500162299114035100025367          000000120000000000025470000000000000000000000000000000037480000000000990000
54734103260114485500162299114035100037808          000000120000000000018950000000000000000000000000000000027880000000000740000
60M202001014708000143353       0012D03452403452500278700200000000000285000000000147941153                                     
60A202001014708000143353       F   000000028500                                                                               
60D202001014708000143353       6772          000000005000000000000000285000000000000000000F   0000000000000                   
60I202001014708000143353       2D0345240016772          00000000500000000000000570000000000000F   000000000000                
60M202001024708000143353       0012D03452803452900278800200000000000506000000000147991753                                     
60A202001024708000143353       F   000000050600                                                                               
60D202001024708000143353       6303          000000007000000000000000419300000000000000000F   0000000000000                   
60D202001024708000143353       6687          000000005100000000000000086700000000000000000F   0000000000000                   
60I202001024708000143353       2D0345280016303          00000000700000000000000599000000000000F   000000000000                
60I202001024708000143353       2D0345280026687          00000000510000000000000170000000000000F   000000000000                
60M202001034708000143353       0012D03453103453200278900200000000000655000000000148057253                                     
60A202001034708000143353       F   000000065500                                                                               
60D202001034708000143353       372           000000003000000000000000510000000000000000000F   0000000000000                   
60D202001034708000143353       6361          000000001000000000000000145000000000000000000F   0000000000000                   
60I202001034708000143353       2D034531001372           00000000300000000000001700000000000000F   000000000000                
60I202001034708000143353       2D0345310026361          00000000100000000000001450000000000000F   000000000000                
60M202001044708000143353       0012D03453403453500279000200000000000720000000000148129253                                     
60A202001044708000143353       F   000000072000                                                                               
60D202001044708000143353       872           000000003000000000000000720000000000000000000F   0000000000000                   
60I202001044708000143353       2D034534001872           00000000300000000000002400000000000000F   000000000000                
60M202001054708000143353       0012D03453703454000279100200000000000104550000000148139708                                     
60A202001054708000143353       F   000000010095                                                                               
60A202001054708000143353       1200000000000360                                                                               
60D202001054708000143353       872           000000000200000000000000048000000000000000000F   0000000000000                   
60D202001054708000143353       1726          00000000020000000000000000360000000000000036018000000000000065                   
60D202001054708000143353       5608          000000000100000000000000006750000000000000000F   0000000000000                   
60D202001054708000143353       5631          000000000100000000000000033000000000000000000F   0000000000000                   
60D202001054708000143353       7675          000000000600000000000000013200000000000000000F   0000000000000                   
60I202001054708000143353       2D0345370015631          00000000010000000000003300000000000000F   000000000000                
60I202001054708000143353       2D034538001872           00000000020000000000002400000000000000F   000000000000                
60I202001054708000143353       2D0345390011726          000000000200000000000001800000000003601800000000000065                
60I202001054708000143353       2D0345390025608          00000000010000000000000675000000000000F   000000000000                
60I202001054708000143353       2D0345390037675          00000000060000000000000220000000000000F   000000000000                
60M202001064708000143353       0012D03454203454500279200200000000000060750000000148145783                                     
60A202001064708000143353       F   000000003975                                                                               
60A202001064708000143353       CANC000000000500                                                                               
60A202001064708000143353       1200000000001600                                                                               
60D202001064708000143353       249           00000000010000000000000001600000000000000160018000000000000288                   
60D202001064708000143353       4676          000000000100000000000000003600000000000000000F   0000000000000                   
60D202001064708000143353       6303          000000000500000000000000029950000000000000000F   0000000000000                   
60D202001064708000143353       7602          000000000100000000000000006200000000000000000F   0000000000000                   
60I202001064708000143353       2D0345420016303          00000000050000000000000599000000000000F   000000000000                
60I202001064708000143353       2D034543001249           000000000100000000000016000000000016001800000000000288                
60I202001064708000143353       2D0345430024676          00000000010000000000000360000000000000F   000000000000                
60I202001064708000143353       2D0345430037602          00000000010000000000000620000000000000F   000000000000                
60M202001074708000143353       0012D03454703454800279300200000000000589500000000148204733                                     
60A202001074708000143353       F   000000058950                                                                               
60D202001074708000143353       872           000000002000000000000000480000000000000000000F   0000000000000                   
60D202001074708000143353       5507          000000001500000000000000109500000000000000000F   0000000000000                   
60I202001074708000143353       2D034547001872           00000000200000000000002400000000000000F   000000000000                
60I202001074708000143353       2D0345470025507          00000000150000000000000730000000000000F   000000000000                
60M202001084708000143353       0012D03455003455100279400200000000001260000000000148330733                                     
60A202001084708000143353       F   000000126000                                                                               
60D202001084708000143353       5460          000000030000000000000001260000000000000000000F   0000000000000                   
60I202001084708000143353       2D0345500015460          00000003000000000000000420000000000000F   000000000000                
60M202001094708000143353       0012D03455303455600279500200000000001176000000000148448333                                     
60A202001094708000143353       F   000000117600                                                                               
60D202001094708000143353       4926          000000017500000000000000910000000000000000000F   0000000000000                   
60D202001094708000143353       6119          000000003000000000000000114000000000000000000F   0000000000000                   
60D202001094708000143353       6120          000000004000000000000000152000000000000000000F   0000000000000                   
60I202001094708000143353       2D0345530016119          00000000300000000000000380000000000000F   000000000000                
60I202001094708000143353       2D0345530026120          00000000400000000000000380000000000000F   000000000000                
60I202001094708000143353       2D0345540014926          00000000010000000000000520000000000000F   000000000000                
60I202001094708000143353       2D0345550014926          00000001740000000000000520000000000000F   000000000000                
60M202001104708000143353       0012D03455803455900279600200000000000171000000000148465433                                     
60A202001104708000143353       F   000000017100                                                                               
60D202001104708000143353       6772          000000003000000000000000171000000000000000000F   0000000000000                   
60I202001104708000143353       2D0345580016772          00000000300000000000000570000000000000F   000000000000                
60M202001114708000143353       0012D03456103456200279700200000000000232000000000148488633                                     
60A202001114708000143353       1200000000023200                                                                               
60D202001114708000143353       2539          00000000800000000000000023200000000000002320018000000000004176                   
60I202001114708000143353       2D0345610012539          000000008000000000000002900000000232001800000000004176                
60M202001124708000143353       0012D03456403456500279800200000000000529200000000148541553                                     
60A202001124708000143353       F   000000052920                                                                               
60D202001124708000143353       6428          000000003600000000000000529200000000000000000F   0000000000000                   
60I202001124708000143353       2D0345640016428          00000000360000000000001470000000000000F   000000000000                
60M202001134708000143353       0012D03456703456800279900200000000000302000000000148571753                                     
60A202001134708000143353       F   000000010000                                                                               
60A202001134708000143353       1200000000020200                                                                               
60D202001134708000143353       2539          00000000200000000000000005800000000000000580018000000000001044                   
60D202001134708000143353       3453          00000001440000000000000014400000000000001440018000000000002592                   
60D202001134708000143353       6577          000000005000000000000000100000000000000000000F   0000000000000                   
60I202001134708000143353       2D0345670012539          000000002000000000000002900000000058001800000000001044                
60I202001134708000143353       2D0345670023453          000000014400000000000001000000000144001800000000002592                
60I202001134708000143353       2D0345670036577          00000000500000000000000200000000000000F   000000000000                
60M202001144708000143353       0012D03457003457100280000200000000001086000000000148680353                                     
60A202001144708000143353       F   000000028000                                                                               
60A202001144708000143353       1200000000080600                                                                               
60D202001144708000143353       5131          000000004000000000000000280000000000000000000F   0000000000000                   
60D202001144708000143353       6494          00000000620000000000000080600000000000008060018000000000014508                   
60I202001144708000143353       2D0345700015131          00000000400000000000000700000000000000F   000000000000                
60I202001144708000143353       2D0345700026494          000000006200000000000013000000000806001800000000014508                
60M202001154708000143353       0012D03457303457400280100200000000000264000000000148706753                                     
60A202001154708000143353       F   000000026400                                                                               
60D202001154708000143353       7748          000000004800000000000000264000000000000000000F   0000000000000                   
60I202001154708000143353       2D0345730017748          00000000010000000000000550000000000000F   000000000000                
60I202001154708000143353       2D0345730027748          00000000470000000000000550000000000000F   000000000000                
60M202001164708000143353       0012D03457603457700280200200000000000848000000000148791553                                     
60A202001164708000143353       1200000000084800                                                                               
60D202001164708000143353       249           00000000530000000000000084800000000000008480018000000000015264                   
60I202001164708000143353       2D034576001249           000000005300000000000016000000000848001800000000015264                
60M202001174708000143353       0012D03457903458000280300200000000000406000000000148832153                                     
60A202001174708000143353       F   000000040600                                                                               
60D202001174708000143353       5844          000000002400000000000000228000000000000000000F   0000000000000                   
60D202001174708000143353       6869          000000002000000000000000178000000000000000000F   0000000000000                   
60I202001174708000143353       2D0345790015844          00000000240000000000000950000000000000F   000000000000                
60I202001174708000143353       2D0345790026869          00000000200000000000000890000000000000F   000000000000                
60M202001184708000143353       0012D03457903458300280400200000000000455000000000148877653                                     
60A202001184708000143353       1200000000045500                                                                               
60D202001184708000143353       249           00000000040000000000000006400000000000000640018000000000001152                   
60D202001184708000143353       4738          00000000230000000000000039100000000000003910018000000000007038                   
60I202001184708000143353       2D034582001249           000000000400000000000016000000000064001800000000001152                
60I202001184708000143353       2D0345820024738          000000002300000000000017000000000391001800000000007038                
60M202001194708000143353       0012D03458303458500280500200000000000000000000000148877653                                     
60M202001204708000143353       0012D03458703458900280600200000000000591000000000148936753                                     
60A202001204708000143353       F   000000059100                                                                               
60D202001204708000143353       6906          000000002500000000000000525000000000000000000F   0000000000000                   
60D202001204708000143353       7023          000000002000000000000000066000000000000000000F   0000000000000                   
60I202001204708000143353       2D0345870016906          00000000250000000000002100000000000000F   000000000000                
60I202001204708000143353       2D0345880017023          00000000200000000000000330000000000000F   000000000000                
60M202001214708000143353       0012D03459103459200280700200000000001500000000000149086753                                     
60A202001214708000143353       F   000000150000                                                                               
60D202001214708000143353       6073          000000015000000000000001500000000000000000000F   0000000000000                   
60I202001214708000143353       2D0345910016073          00000001500000000000001000000000000000F   000000000000                
60M202001224708000143353       0012D03459403459500280800200000000000800000000000149166753                                     
60A202001224708000143353       1200000000080000                                                                               
60D202001224708000143353       249           00000000500000000000000080000000000000008000018000000000014400                   
60I202001224708000143353       2D034594001249           000000005000000000000016000000000800001800000000014400                
60M202001234708000143353       0012D03459703459800280900200000000000498000000000149216553                                     
60A202001234708000143353       F   000000049800                                                                               
60D202001234708000143353       6486          000000003400000000000000251600000000000000000F   0000000000000                   
60D202001234708000143353       6656          000000003200000000000000246400000000000000000F   0000000000000                   
60I202001234708000143353       2D0345970016486          00000000340000000000000740000000000000F   000000000000                
60I202001234708000143353       2D0345970026656          00000000320000000000000770000000000000F   000000000000                
60M202001244708000143353       0012D03460003460100281000200000000001840000000000149400553                                     
60A202001244708000143353       F   000000184000                                                                               
60D202001244708000143353       5486          000000023000000000000001840000000000000000000F   0000000000000                   
60I202001244708000143353       2D0346000015486          00000002300000000000000800000000000000F   000000000000                
60M202001254708000143353       0012D03460303460400281100200000000000800000000000149480553                                     
60A202001254708000143353       F   000000080000                                                                               
60D202001254708000143353       5283          000000004000000000000000800000000000000000000F   0000000000000                   
60I202001254708000143353       2D0346030015283          00000000400000000000002000000000000000F   000000000000                
60M202001264708000143353       0012D03460603460700281200200000000001176000000000149598153                                     
60A202001264708000143353       F   000000117600                                                                               
60D202001264708000143353       4757          000000004200000000000001176000000000000000000F   0000000000000                   
60I202001264708000143353       2D0346060014757          00000000420000000000002800000000000000F   000000000000                
60M202001274708000143353       0012D03460903461200281300200000000001149000000000149713053                                     
60A202001274708000143353       F   000000114200                                                                               
60A202001274708000143353       1200000000000700                                                                               
60D202001274708000143353       4734          000000000100000000000000013000000000000000000F   0000000000000                   
60D202001274708000143353       4757          000000004000000000000001120000000000000000000F   0000000000000                   
60D202001274708000143353       4932          00000000010000000000000000700000000000000070018000000000000126                   
60D202001274708000143353       7703          000000000100000000000000009000000000000000000F   0000000000000                   
60I202001274708000143353       2D0346090014932          000000000100000000000007000000000007001800000000000126                
60I202001274708000143353       2D0346090027703          00000000010000000000000900000000000000F   000000000000                
60I202001274708000143353       2D0346100014734          00000000010000000000001300000000000000F   000000000000                
60I202001274708000143353       2D0346110014757          00000000400000000000002800000000000000F   000000000000                
60M202001284708000143353       0012D03461403461500281400200000000000960000000000149809053                                     
60A202001284708000143353       F   000000096000                                                                               
60D202001284708000143353       872           000000004000000000000000960000000000000000000F   0000000000000                   
60I202001284708000143353       2D034614001872           00000000400000000000002400000000000000F   000000000000                
60M202001294708000143353       0012D03461703462000281500200000000000673000000000149876353                                     
60A202001294708000143353       F   000000067300                                                                               
60D202001294708000143353       1385          000000000600000000000000045000000000000000000F   0000000000000                   
60D202001294708000143353       1389          000000000200000000000000011600000000000000000F   0000000000000                   
60D202001294708000143353       1392          000000000400000000000000030000000000000000000F   0000000000000                   
60D202001294708000143353       1393          000000000200000000000000015000000000000000000F   0000000000000                   
60D202001294708000143353       1395          000000000300000000000000022500000000000000000F   0000000000000                   
60D202001294708000143353       1396          000000000100000000000000005800000000000000000F   0000000000000                   
60D202001294708000143353       1397          000000000300000000000000022500000000000000000F   0000000000000                   
60D202001294708000143353       4779          000000000300000000000000022500000000000000000F   0000000000000                   
60D202001294708000143353       4780          000000000200000000000000011600000000000000000F   0000000000000                   
60D202001294708000143353       5393          000000000300000000000000019500000000000000000F   0000000000000                   
60D202001294708000143353       5474          000000000200000000000000015000000000000000000F   0000000000000                   
60D202001294708000143353       5475          000000000100000000000000007500000000000000000F   0000000000000                   
60D202001294708000143353       5476          000000000200000000000000015000000000000000000F   0000000000000                   
60D202001294708000143353       5477          000000000100000000000000007500000000000000000F   0000000000000                   
60D202001294708000143353       5668          000000001000000000000000180000000000000000000F   0000000000000                   
60D202001294708000143353       6290          000000000400000000000000068000000000000000000F   0000000000000                   
60D202001294708000143353       7000          000000000300000000000000021000000000000000000F   0000000000000                   
60D202001294708000143353       7001          000000000300000000000000025500000000000000000F   0000000000000                   
60D202001294708000143353       7002          000000000300000000000000025500000000000000000F   0000000000000                   
60D202001294708000143353       7003          000000000300000000000000025500000000000000000F   0000000000000                   
60D202001294708000143353       7004          000000000300000000000000025500000000000000000F   0000000000000                   
60D202001294708000143353       7005          000000000300000000000000025500000000000000000F   0000000000000                   
60D202001294708000143353       7006          000000000300000000000000025500000000000000000F   0000000000000                   
60I202001294708000143353       2D0346170015668          00000000100000000000001800000000000000F   000000000000                
60I202001294708000143353       2D0346180016290          00000000040000000000001700000000000000F   000000000000                
60I202001294708000143353       2D0346180027000          00000000030000000000000700000000000000F   000000000000                
60I202001294708000143353       2D0346180037001          00000000030000000000000850000000000000F   000000000000                
60I202001294708000143353       2D0346180047002          00000000030000000000000850000000000000F   000000000000                
60I202001294708000143353       2D0346180057003          00000000030000000000000850000000000000F   000000000000                
60I202001294708000143353       2D0346180067004          00000000030000000000000850000000000000F   000000000000                
60I202001294708000143353       2D0346180077005          00000000030000000000000850000000000000F   000000000000                
60I202001294708000143353       2D0346180087006          00000000030000000000000850000000000000F   000000000000                
60I202001294708000143353       2D0346190011385          00000000060000000000000750000000000000F   000000000000                
60I202001294708000143353       2D0346190021389          00000000020000000000000580000000000000F   000000000000                
60I202001294708000143353       2D0346190031392          00000000040000000000000750000000000000F   000000000000                
60I202001294708000143353       2D0346190041393          00000000020000000000000750000000000000F   000000000000                
60I202001294708000143353       2D0346190051395          00000000030000000000000750000000000000F   000000000000                
60I202001294708000143353       2D0346190061396          00000000010000000000000580000000000000F   000000000000                
60I202001294708000143353       2D0346190071397          00000000030000000000000750000000000000F   000000000000                
60I202001294708000143353       2D0346190084779          00000000030000000000000750000000000000F   000000000000                
60I202001294708000143353       2D0346190094780          00000000020000000000000580000000000000F   000000000000                
60I202001294708000143353       2D0346190105393          00000000030000000000000650000000000000F   000000000000                
60I202001294708000143353       2D0346190115474          00000000020000000000000750000000000000F   000000000000                
60I202001294708000143353       2D0346190125475          00000000010000000000000750000000000000F   000000000000                
60I202001294708000143353       2D0346190135476          00000000020000000000000750000000000000F   000000000000                
60I202001294708000143353       2D0346190145477          00000000010000000000000750000000000000F   000000000000                
60M202001304708000143353       0012D03462203462300281600200000000001168050000000149993158                                     
60A202001304708000143353       F   000000116805                                                                               
60D202001304708000143353       6303          000000019500000000000001168050000000000000000F   0000000000000                   
60I202001304708000143353       2D0346220016303          00000001950000000000000599000000000000F   000000000000                
60M202001314708000143353       0012D03462503462600281700200000000000582000000000150051358                                     
60A202001314708000143353       F   000000004200                                                                               
60A202001314708000143353       1200000000054000                                                                               
60D202001314708000143353       4617          00000001800000000000000054000000000000005400018000000000009720                   
60D202001314708000143353       7066          000000001400000000000000042000000000000000000F   0000000000000                   
60I202001314708000143353       2D0346250014617          000000018000000000000003000000000540001800000000009720                
60I202001314708000143353       2D0346250027066          00000000140000000000000300000000000000F   000000000000                
75202001012020013159            22029000ACHOC.NESCAU ENERGIA NESTLE 200ML.                   UND   000000000000000000000000000
75202001012020013182            35061010ADES.INST SUPER BONDER 3G                            UND   000000000000000000000000000
752020010120200131249           10063021ARR.CODIL PLUS TIPO 1                                UND   000000000000000000000000000
752020010120200131372           02101200BACON SADIA KG                                       UND   000000000000000000000000000
752020010120200131416           95044000BARALHO COPAG 139/54 CARTAS                          UND   000000000000000000000000000
752020010120200131462           33059000BICHO SEDA 30ML                                      UND   000000000000000000000000000
752020010120200131872           22030000CERV.ANTARCTICA SUB ZERO 12/1                        UND   000000000000000000000000000
752020010120200131943           18063110CHOC.CHOKITO NESTLE 32G                              UND   000000000000000000000000000
752020010120200131991           24022000CIG.DERBY AZUL                                       UND   000000000000000000000000000
752020010120200131993           24022000CIG.DERBY VERM.                                      UND   000000000000000000000000000
7520200101202001311043          08011110COCO RAL.MENINA 100G                                 UND   000000000000000000000000000
7520200101202001311385          33059000CREM.PENT.SEDA LISO EXTREMO                          UND   000000000000000000000000000
7520200101202001311389          33059000CREM.PENTEAR S.O.S CHOCOLATE                         UND   000000000000000000000000000
7520200101202001311392          33059000CREM.PENTEAR SEDA CLIMA RESIST.                      UND   000000000000000000000000000
7520200101202001311393          33059000CREM.PENTEAR SEDA LISO PERF.                         UND   000000000000000000000000000
7520200101202001311395          33059000CREM.PENTEAR SEDA PRETOS LUM.                        UND   000000000000000000000000000
7520200101202001311396          33059000CREM.PENTEAR SEDA PRO COLOR                          UND   000000000000000000000000000
7520200101202001311397          33059000CREM.PENTEAR SEDA S.O.S CRESC.FORT.                  UND   000000000000000000000000000
7520200101202001311726          34022000DET.YPE CLEAR 500ML                                  UND   000000000000000000000000000
7520200101202001312539          04011010LEITE CAMPONESA INT.EMBARE 1LT.                      UND   000000000000000000000000000
7520200101202001312656          33049910LOC.PAIXAO FELICIDADE 200ML                          UND   000000000000000000000000000
7520200101202001312665          33049910LOCAO HID PAIXAO SED 200ML                           UND   000000000000000000000000000
7520200101202001312801          21039011MAIO.HELLMANN`S 500G                                 UND   000000000000000000000000000
7520200101202001312832          15171000MARG.DELICIA 500G                                    UND   000000000000000000000000000
7520200101202001312901          19012000MIST.BOLO COCO 400G                                  UND   000000000000000000000000000
7520200101202001312907          19012000MIST.BOLO VILMA CHOC.SUAVE 400G                      UND   000000000000000000000000000
7520200101202001313030          15079011OLEO SOJA CONCORDIA 900ML.                           UND   000000000000000000000000000
7520200101202001313453          22021000REF.ANTARCTICA GUARANA 237ML.                        UND   000000000000000000000000000
7520200101202001313786          16010000SALS.HOTDOG KG                                       UND   000000000000000000000000000
7520200101202001313950          21039021SAZ.VERMELHO 60G                                     UN    000000000000000000000000000
7520200101202001314585          96032100ESC.DENT.SORRISO DURA                                UN    000000000000000000000000000
7520200101202001314613          16010000MORTADELA PERDIGAO CONFIANCA                         KG    000000000000000000000000000
7520200101202001314617          36050000FOSFORO PINHEIRO 10UN                                UN    000000000000000000000000000
7520200101202001314676          48184090ABS INTIMUS GEL NOT.8UN                              UN    000000000000000000000000000
7520200101202001314711          17049020BALA ICE KISS LOVE MENTA 600G                        UN    000000000000000000000000000
7520200101202001314717          21069010SUC.VILMA TANGERINA 240G                             UN    000000000000000000000000000
7520200101202001314733          33051000SHAMP.CLEAR MEN CONT.DA COCEIRA                      UN    000000000000000000000000000
7520200101202001314734          33051000SHAMP.CLEAR MEN ICE COOL MENT                        UN    000000000000000000000000000
7520200101202001314738          02101900BACON ESPECIAL SUINO DEF.FRIALL                      KG    000000000000000000000000000
7520200101202001314757          22030000CERV.CRYSTAL LATAO 473ML 12/1                        UN    000000000000000000000000000
7520200101202001314770          33049910LOCAO HID.PAIXAO INSPIRADORA 200ML                   UN    000000000000000000000000000
7520200101202001314779          33059000CREM.PENTEAR S.O.S CERAMIDAS 300ML                   UN    000000000000000000000000000
7520200101202001314780          33059000CREM.PENTEAR SEDA S.O.S KERAFORCE 300ML              UN    000000000000000000000000000
7520200101202001314802          33049910LOCAO HID.PAIXAO ROMANTICA 200ML                     UN    000000000000000000000000000
7520200101202001314803          33049910LOCAO HID.PAIXAO TENTADORA 200ML                     UN    000000000000000000000000000
7520200101202001314804          48181000PAP.HIG.PERSONAL NEUTRO 8UN                          UN    000000000000000000000000000
7520200101202001314811          21069010SUCO VILMA MORANGO SILVESTRE 240G                    UN    000000000000000000000000000
7520200101202001314816          19053100BISC.MARILAN COCO 400G                               UN    000000000000000000000000000
7520200101202001314817          19053100BISC.MARILAN LEITE 400G                              UN    000000000000000000000000000
7520200101202001314819          19053100BISC.MARILAN CREAM CRACKER 400G                      UN    000000000000000000000000000
7520200101202001314836          11081400POLVILHO AMAFIL DOCE 1KG                             UN    000000000000000000000000000
7520200101202001314850          33049910LOCAO HID.PAIXAO IRRESISTIVEL                        UN    000000000000000000000000000
7520200101202001314926          33061000CREM.DENT.COLGATE M.P.ANT.180G                       UN    000000000000000000000000000
7520200101202001314932          33072010DES.ROL.REXONA COTTON 50ML                           UN    000000000000000000000000000
7520200101202001314944          82121020PRESTOBARBA ULTRAGRIP GILLETTE                       UN    000000000000000000000000000
7520200101202001314989          33051000SHAMP.CLEAR HIDRATACAO INTENSA 200ML                 UN    000000000000000000000000000
7520200101202001315074          96170010GARRAFA TERMOLAR PERS.1L AZUL                        UN    000000000000000000000000000
7520200101202001315127          19053100BISC.RECH.PRESTIGIO NESTLE 140G                      UN    000000000000000000000000000
7520200101202001315131          22029000ENERG.RED BULL 250ML                                 UN    000000000000000000000000000
7520200101202001315167          22029000GATORADE LIMAO 500ML                                 UN    000000000000000000000000000
7520200101202001315201          96190000FRALDA BIOFRAL CONFORT EG                            UN    000000000000000000000000000
7520200101202001315263          16010000MORT.OURO PERDIGAO 1K                                UN    000000000000000000000000000
7520200101202001315283          96190000FRALDA PERSONAL XG 24UN                              UN    000000000000000000000000000
7520200101202001315284          96190000FRALDA PERSONAL G 28UN                               UN    000000000000000000000000000
7520200101202001315287          33051000SHAMP.CLEAR LIMPESA PROFUNDA 200ML                   UN    000000000000000000000000000
7520200101202001315299          17029000ACHOC.NESQUIK NESTLE 380G                            UN    000000000000000000000000000
7520200101202001315367          22029000CERV.ITAIPAVA 350ML 0,0%                             UN    000000000000000000000000000
7520200101202001315393          33059000CREM.PENTEAR SEDA OLEO HID.300ML                     UN    000000000000000000000000000
7520200101202001315460          04029900LEITE COND.CAMPONESA 395G                            UN    000000000000000000000000000
7520200101202001315461          04015021CREME LEITE CAMPONESA 200G                           UN    000000000000000000000000000
7520200101202001315474          33059000CREM.PENTEAR SEDA KERAFORCE ORIG.                    UN    000000000000000000000000000
7520200101202001315475          33059000CREM.PENTEAR SEDA KERAFORCE QUIMICA                  UN    000000000000000000000000000
7520200101202001315476          33059000CREM.PENTEAR SEDA ANTI-QUEBRA                        UN    000000000000000000000000000
7520200101202001315477          33059000CREM.PENTEAR SEDA ANTI-NOS HID.                      UN    000000000000000000000000000
7520200101202001315486          19053100ROSQUINHA COCO MABEL 800G                            UN    000000000000000000000000000
7520200101202001315497          16010000LING.TOSCANA CONG.SADIA                              UN    000000000000000000000000000
7520200101202001315498          24022000CIG.HOLLYWOOD ORIGINAL                               UN    000000000000000000000000000
7520200101202001315507          02071200FRANGO CONG.C/MIUDOS SADIA                           UN    000000000000000000000000000
7520200101202001315523          22030000REF.GURANA ANTARCTICA 350ML                          UN    000000000000000000000000000
7520200101202001315607          22021000REF.ANTARCTICA ZERO 2L                               UN    000000000000000000000000000
7520200101202001315608          24022000CIG.PLAZA                                            UN    000000000000000000000000000
7520200101202001315631          22030000CERV.ANTARCTICA SUBZERO 12/1                         UN    000000000000000000000000000
7520200101202001315636          19053100BISC.RECH.NEGRESCO NESTLE 140G                       UN    000000000000000000000000000
7520200101202001315639          16023230BIG.CHICKEN PERDIGAO FRANG/QUEIJO 1K                 UN    000000000000000000000000000
7520200101202001315668          82142000ALICATE CUTICULAS MUNDIAL                            UN    000000000000000000000000000
7520200101202001315676          38089199REPELEX AER.FAMILYCARE 200ML                         UN    000000000000000000000000000
7520200101202001315721          21069010SUCO VILMA UVA 240G                                  UN    000000000000000000000000000
7520200101202001315722          21069010SUCO VILMA MARACUJA 240G                             UN    000000000000000000000000000
7520200101202001315723          21069010SUCO VILMA LARANJA 240G                              UN    000000000000000000000000000
7520200101202001315724          21069010SUCO VILMA LIMAO 240G                                UN    000000000000000000000000000
7520200101202001315728          21069010SUCO VILMA CAJU 240G                                 UN    000000000000000000000000000
7520200101202001315791          19021900MAC.SEMOLAO ESPAGUETE N8                            UN    000000000000000000000000000
7520200101202001315842          21069010SUCO VILMA GOIABA 240G                               UN    000000000000000000000000000
7520200101202001315843          21069010SUCO VILMA MANGA 240G                                UN    000000000000000000000000000
7520200101202001315844          28151100SODA CAUSTICA YARA 950G                              UN    000000000000000000000000000
7520200101202001315881          33051000SHAMP.SEDA PRETOS LUMINOSOS 325ML                    UN    000000000000000000000000000
7520200101202001315920          21039021SAZON VERDE FRANGO                                   UN    000000000000000000000000000
7520200101202001315928          33051000SHAMP.SEDA CERAMIDAS                                 UN    000000000000000000000000000
7520200101202001315933          33051000SHAMP.SEDA PUREZA REFRESCANTE                        UN    000000000000000000000000000
7520200101202001315979          33059000AGUA OXIGENADA FARMAX CREM.V30                       UN    000000000000000000000000000
7520200101202001316026          33051000SHAMP.SEDA LISO PERFEITO                             UN    000000000000000000000000000
7520200101202001316073          18069000ACHOC.TODDY ORIGINAL 800G                            UN    000000000000000000000000000
7520200101202001316117          18069000CHOC.KINDER OVO 20G                                  UN    000000000000000000000000000
7520200101202001316119          16010000MORTADELA FRANGO PERDIGAO 400G                       UN    000000000000000000000000000
7520200101202001316120          16010000MORTADELA MISTA PERDIGAO 400G                        UN    000000000000000000000000000
7520200101202001316127          19053200BOMBOM SONHO DE VALSA 1KG                            UN    000000000000000000000000000
7520200101202001316137          20098990AGUA COCO KERO COCO 330ML                            UN    000000000000000000000000000
7520200101202001316235          19053100BISC.AGUA/SAL MARILAN 400G                           UN    000000000000000000000000000
7520200101202001316290          33059000COND.CERAMIDA PLUSBELLE 1L                           UN    000000000000000000000000000
7520200101202001316303          09012100CAFE BARAO FORTE D+ 500G                             UN    000000000000000000000000000
7520200101202001316314          16010000MORTADELA SADILAR FRANGO 400G                        UN    000000000000000000000000000
7520200101202001316315          16010000MORTADELA SADILAR MISTA 400G                         UN    000000000000000000000000000
7520200101202001316361          16010000LING.CARNE SUINA PERDIGAO 900G                       UN    000000000000000000000000000
7520200101202001316428          02071400ASA BANDEJA PIF PAF 1KG                              UN    000000000000000000000000000
7520200101202001316451          24022000CIG.DUNHILL BOX                                      UN    000000000000000000000000000
7520200101202001316486          15152910OLEO DE MILHO SALADA 900ML                           UN    000000000000000000000000000
7520200101202001316494          22029000ENERG.RED BULL ENERGY DRINK 473ML                    UN    000000000000000000000000000
7520200101202001316577          19053100BISC.PASSATEMPO RECH.CHOC.130G                       UN    000000000000000000000000000
7520200101202001316602          20089100PALMITO DE ACAIZEIRO BRASPALM                        UN    000000000000000000000000000
7520200101202001316656          15121911OLEO GIRASSOL LIZA 900ML                             UN    000000000000000000000000000
7520200101202001316687          34022000DETERG.LIMPOL COCO 500ML                             UN    000000000000000000000000000
7520200101202001316704          22030000CERV.BRAHMA LATA 12/1                                UN    000000000000000000000000000
7520200101202001316740          22021000REF.GUARANA IT 350ML                                 UN    000000000000000000000000000
7520200101202001316761          34022000LIMP.VEJA MULTIUSO GOLD                              UN    000000000000000000000000000
7520200101202001316765          22030000CERV.SKOL LATA 12/1                                  UN    000000000000000000000000000
7520200101202001316772          02071200GALINHA INT.CONG.C/MIUDOS PRINCESA                   UN    000000000000000000000000000
7520200101202001316776          22021000REF.SUKITA 2LTS                                      UN    000000000000000000000000000
7520200101202001316784          19012000MIST.BOLO VILMA ABACAXI 400G                         UN    000000000000000000000000000
7520200101202001316815          22029900GATORADE TANGERINA 500ML                             UN    000000000000000000000000000
7520200101202001316854          22021000REF.GUARANA ANTARCTICA ZERO 350ML                    UN    000000000000000000000000000
7520200101202001316869          34022000DETERG.OMO MULTIACAO 1KG                             UN    000000000000000000000000000
7520200101202001316889          02071200FILE PEITO BDJ CONG.FREDINI 1KG                      UN    000000000000000000000000000
7520200101202001316896          10063021ARROZ CODISUL TIPO 1 5KG                             UN    000000000000000000000000000
7520200101202001316906          20041000BATATA CONG.MAIS BATATA 2KG                          UN    000000000000000000000000000
7520200101202001316938          02071200SOBRECOXAS BDJ FREDINE 1KG                           UN    000000000000000000000000000
7520200101202001316955          20096100SUCO UVA INTEGRAL ALIANCA 1,5L                       UN    000000000000000000000000000
7520200101202001317000          33059000COND.GARNIER FRUCTIS APAGA DANOS                     UN    000000000000000000000000000
7520200101202001317001          33059000COND.GARNIER FRUCTIS CACHOS PODEROSOS                UN    000000000000000000000000000
7520200101202001317002          33059000COND.GARNIER FRUCTIS FORCA BRILHO                    UN    000000000000000000000000000
7520200101202001317003          33059000COND.GARNIER FRUCTIS LISO ABSOLUTO                   UN    000000000000000000000000000
7520200101202001317004          33059000COND.GARNIER FRUCTIS LISO ABSOLUTO QUI               UN    000000000000000000000000000
7520200101202001317005          33059000COND.GARNIER FRUCTIS OLEO REP.QUIMICA                UN    000000000000000000000000000
7520200101202001317006          33059000COND.GARNIER FRUCTIS FRESCOR VITAMINADO              UN    000000000000000000000000000
7520200101202001317021          04031000IOG.VIGOR MIX C/CONFEITOS COLORIDOS                  UN    000000000000000000000000000
7520200101202001317022          04039000LEITE FERMENTADO VIGOR 75G                           UN    000000000000000000000000000
7520200101202001317023          20041000BATATA CONG.TRAD.BEM BRASIL 400G                     UN    000000000000000000000000000
7520200101202001317066          36050000FOSFORO FIAT LUX 240UN                               UN    000000000000000000000000000
7520200101202001317108          34011190SAB.PROTEX SUAVE 85G                                 UN    000000000000000000000000000
7520200101202001317111          04049000SOBREMESA FLAN C/CALDA CARAMELO                      UN    000000000000000000000000000
7520200101202001317116          22030000CERV.STELLA ARTOIS 275ML                             UN    000000000000000000000000000
7520200101202001317183          19021900MASSA PASTEL BOTELHO GRANDE                          UN    000000000000000000000000000
7520200101202001317219          22021000REF.GUARANA ANTARCTICA 2,5LTS                        UN    000000000000000000000000000
7520200101202001317220          22030000CERV.BUDWEISER 330ML                                 UN    000000000000000000000000000
7520200101202001317225          96131000ISQ.BIC MINI                                         UN    000000000000000000000000000
7520200101202001317291          24022000CIG.ROTHMANS RED MACO                                UN    000000000000000000000000000
7520200101202001317292          24022000CIG.ROTHMANS SPECIAL MACO                            UN    000000000000000000000000000
7520200101202001317293          04061090QUEIJ.PETIT.SUISSE MORANGO VIGOR                     UN    000000000000000000000000000
7520200101202001317367          20098990AGUA COCO PURO COCO 1L                               UN    000000000000000000000000000
7520200101202001317405          20029090EXT.ELEFANTE TP 540G                                 UN    000000000000000000000000000
7520200101202001317411          03047400FILE MERLUZA S/PELE PESCANOBRE 1KG                   UN    000000000000000000000000000
7520200101202001317499          15121911OLEO GIRASSOL SINHA 900ML                            UN    000000000000000000000000000
7520200101202001317500          15152910OLEO MILHO SINHA 900ML                               UN    000000000000000000000000000
7520200101202001317501          33059000CREME TRAT.CAPILAR NOVEX 10 ATIVOS 1KG               UN    000000000000000000000000000
7520200101202001317502          33059000CREME TRAT.NOVEX 12 ATIVOS 1KG                       UN    000000000000000000000000000
7520200101202001317506          20057000AZEIT.FATIADAS FONTINI 200G                          UN    000000000000000000000000000
7520200101202001317511          02071400COXAS BDJ FREDINI 1KG                                UN    000000000000000000000000000
7520200101202001317548          34011190SAB.PROTEX LIMPESA PROFUNDA 85G                      UN    000000000000000000000000000
7520200101202001317569          04031000IOG.VIGOR FRUTAS VERMELHAS 900G                      UN    000000000000000000000000000
7520200101202001317602          07133399FEIJAO CODIL TRAD.1KG                                UN    000000000000000000000000000
7520200101202001317603          22030000CERV.SKOL PURO MALTE 473ML                           UN    000000000000000000000000000
7520200101202001317671          18063210CHOC.SUFLAIR NESTLE 50G                              UN    000000000000000000000000000
7520200101202001317675          22030000CERV.SKOL 300ML                                      UN    000000000000000000000000000
7520200101202001317678          33074900BOM AR AER.LAVANDA 360ML                             UN    000000000000000000000000000
7520200101202001317703          33072090LOCAO HID.NIVEA FLOR CEREJEIRA 200ML                 UN    000000000000000000000000000
7520200101202001317748          18069000KINDER JOY                                           UN    000000000000000000000000000
7520200101202001317754          04061090PETIT INF.MORANGO KIDS ITAMBE 8/1                    UN    000000000000000000000000000
7520200101202001317755          04061090REQ.TRAD.ITAMBE 220G                                 UN    000000000000000000000000000
7520200101202001317756          04051000MANTEIGA ITAMBE 200G                                 UN    000000000000000000000000000
7520200101202001317771          02071200FRANGO BELLA CEIA                                    UN    000000000000000000000000000
7520200101202001317784          04039000LEITE FERMENTADO ITAMBE                              UN    000000000000000000000000000
7520200101202001317792          19022000LASANHA BOLONHESA PERDIGAO 1KG                       UN    000000000000000000000000000
7520200101202001317793          18069000BOMBOM GAROTO 250G                                   UN    000000000000000000000000000
7520200101202001317794          20057000AZEIT.LOLITA S/CAROCO 325G                           UN    000000000000000000000000000
7520200101202001317795          20098990LEITE COCO TRAD.COPRA 200ML                          UN    000000000000000000000000000
7520200101202001317796          76169900ESCADA ALUM.7 DEGRAUS MAESTRO                        UN    000000000000000000000000000
7520200101202001317797          94051093PAINEL LED LUX SOBREPOR 18W TASCHIBRA                UN    000000000000000000000000000
7520200101202001317798          19021900MASSA PASTEL CESABELA GRANDE                         UN    000000000000000000000000000
7520200101202001317799          04029900LEITE COND.INT.ITAMBE 395G                           UN    000000000000000000000000000
7520200101202001317800          04031000IOG.FIT ITAMBE MORANGO 850G                          UN    000000000000000000000000000
7520200101202001317801          22029900IOG.VIGOR BDJ 6/1                                    UN    000000000000000000000000000
7520200101202001317802          19012000MIST.BOLO VILMA MANDIOCA                             UN    000000000000000000000000000
7520200101202001317803          38099190AMAC.BOM BIJOU PUREZA 2LTS                           UN    000000000000000000000000000
7520200101202001317804          44219900PALITO GINA 200UN                                    UN    000000000000000000000000000
7520200101202001317805          08062000UVAS PASSAS FONTINI 250G                             UN    000000000000000000000000000
7520200101202001317806          48181000PAP.HIG.SULLEG 4/1 30MTS                             UN    000000000000000000000000000
7520200101202001317807          22030000CERV.ITAIPAVA MALZBIER 350ML                         UN    000000000000000000000000000
7520200101202001317808          22021000REF.IT LEMON ICE LATA 350ML                          UN    000000000000000000000000000
7520200101202001317809          18063210CHOC.ALPINO NESTLE 90G                               UN    000000000000000000000000000
7520200101202001317810          18069000BOMBOM ESP.NESTLE 251G                               UN    000000000000000000000000000
7520200101202001317811          33059000AGUA OXIGENADA FARMAX V.40                           UN    000000000000000000000000000
7520200101202001317812          21069029GELATINA APTI LIMAO 35G                              UN    000000000000000000000000000
7520200101202001317813          03038114PEIXE CONG.CACAO POSTA 1KG                           UN    000000000000000000000000000
7520200101202001317814          03038910PEIXE CONG.CORVINA FRIOCENTER                        UN    000000000000000000000000000
7520200101202001317815          22029900ACHOC.GOODY ITAMBE CHOC.200ML                        UN    000000000000000000000000000
7520200101202001317816          20041000BATATA UAI 2KG                                       UN    000000000000000000000000000
7520200101202001317817          34011190SAB.PROTEX BALANCE SAUDAVEL                          UN    000000000000000000000000000
7520200101202001317818          33059000CREME TRAT.NOVEX REP.DE MASSA 1KG                    UN    000000000000000000000000000
7520200101202001317819          33059000AGUA OXIG.CREMOSA FRAMAX V.20                        UN    000000000000000000000000000
7520200101202001317820          20057000AZEIT.PRAMESA 100G                                   UN    000000000000000000000000000
7520200101202001317821          17049020BALA ICEKISS CEREJA 600G                             UN    000000000000000000000000000
7520200101202001317822          17049020BALA ICEKISS EUCALIPTO 600G                          UN    000000000000000000000000000
7520200101202001317823          17049020BALA ICEKISS EXTRA FORTE 600G                        UN    000000000000000000000000000
7520200101202001317824          17049020BALA ICEKISS MORANGO 600G                            UN    000000000000000000000000000
7520200101202001317825          17049020BALA ICEKISS MELAO 600G                              UN    000000000000000000000000000
7520200101202001317826          17049020BALA ICEKISS MORANGO DOCINHO 600G                    UN    000000000000000000000000000
7520200101202001317827          17049020BALA ICEKISS TUTTI FRUTTI 600G                       UN    000000000000000000000000000
7520200101202001317828          38089119APARELHO ELET.SBP LIQ                                UN    000000000000000000000000000
7520200101202001317829          38089119PASTILHA SBP L12P10                                  UN    000000000000000000000000000
7520200101202001317830          96190000FRALDA BABY WILLY KIDS G                             UN    000000000000000000000000000
7520200101202001317831          96190000FRALDA BABY WILLY KIDS EG                            UN    000000000000000000000000000
88EAN1359            ACHOC.NESCAU ENERGIA NESTLE 200ML.                   UND   7891000379103                                 
88EAN1382            ADES.INST SUPER BONDER 3G                            UND   7891200190942                                 
88EAN13249           ARR.CODIL PLUS TIPO 1                                UND   7897105500909                                 
88EAN13372           BACON SADIA KG                                       UND   7891000003725                                 
88EAN13416           BARALHO COPAG 139/54 CARTAS                          UND   7896008910112                                 
88EAN13462           BICHO SEDA 30ML                                      UND   7897626501249                                 
88EAN13872           CERV.ANTARCTICA SUB ZERO 12/1                        UND   7891000008720                                 
88EAN13943           CHOC.CHOKITO NESTLE 32G                              UND   7891000462300                                 
88EAN131043          COCO RAL.MENINA 100G                                 UND   7896028030654                                 
88EAN131385          CREM.PENT.SEDA LISO EXTREMO                          UND   7898422749590                                 
88EAN131389          CREM.PENTEAR S.O.S CHOCOLATE                         UND   7891150001015                                 
88EAN131392          CREM.PENTEAR SEDA CLIMA RESIST.                      UND   7891150007741                                 
88EAN131393          CREM.PENTEAR SEDA LISO PERF.                         UND   7891037010048                                 
88EAN131395          CREM.PENTEAR SEDA PRETOS LUM.                        UND   7898422745301                                 
88EAN131396          CREM.PENTEAR SEDA PRO COLOR                          UND   7891150015036                                 
88EAN131397          CREM.PENTEAR SEDA S.O.S CRESC.FORT.                  UND   7891150002166                                 
88EAN131726          DET.YPE CLEAR 500ML                                  UND   7896098900253                                 
88EAN132539          LEITE CAMPONESA INT.EMBARE 1LT.                      UND   7896259412861                                 
88EAN132801          MAIO.HELLMANN`S 500G                                 UND   7894000050034                                 
88EAN132832          MARG.DELICIA 500G                                    UND   7891080400087                                 
88EAN132901          MIST.BOLO COCO 400G                                  UND   7896417209159                                 
88EAN132907          MIST.BOLO VILMA CHOC.SUAVE 400G                      UND   7896417211367                                 
88EAN133030          OLEO SOJA CONCORDIA 900ML.                           UND   7898247780075                                 
88EAN133786          SALS.HOTDOG KG                                       UND   7891000037867                                 
88EAN133950          SAZ.VERMELHO 60G                                     UN    7891132019281                                 
88EAN134585          ESC.DENT.SORRISO DURA                                UN    7891528016511                                 
88EAN134613          MORTADELA PERDIGAO CONFIANCA                         KG    7891000046135                                 
88EAN134617          FOSFORO PINHEIRO 10UN                                UN    7896007912124                                 
88EAN134676          ABS INTIMUS GEL NOT.8UN                              UN    7896007540662                                 
88EAN134711          BALA ICE KISS LOVE MENTA 600G                        UN    7896286614979                                 
88EAN134717          SUC.VILMA TANGERINA 240G                             UN    7896417211039                                 
88EAN134733          SHAMP.CLEAR MEN CONT.DA COCEIRA                      UN    7891150014107                                 
88EAN134734          SHAMP.CLEAR MEN ICE COOL MENT                        UN    7891150007406                                 
88EAN134738          BACON ESPECIAL SUINO DEF.FRIALL                      KG    7891000047385                                 
88EAN134757          CERV.CRYSTAL LATAO 473ML 12/1                        UN    7897395060244                                 
88EAN134779          CREM.PENTEAR S.O.S CERAMIDAS 300ML                   UN    7891037144705                                 
88EAN134780          CREM.PENTEAR SEDA S.O.S KERAFORCE 300ML              UN    7891037004290                                 
88EAN134804          PAP.HIG.PERSONAL NEUTRO 8UN                          UN    7896110091846                                 
88EAN134811          SUCO VILMA MORANGO SILVESTRE 240G                    UN    7896417214580                                 
88EAN134816          BISC.MARILAN COCO 400G                               UN    7896003703047                                 
88EAN134817          BISC.MARILAN LEITE 400G                              UN    7896003703061                                 
88EAN134819          BISC.MARILAN CREAM CRACKER 400G                      UN    7896003703214                                 
88EAN134836          POLVILHO AMAFIL DOCE 1KG                             UN    7896035921211                                 
88EAN134926          CREM.DENT.COLGATE M.P.ANT.180G                       UN    7891024134610                                 
88EAN134944          PRESTOBARBA ULTRAGRIP GILLETTE                       UN    7501009222729                                 
88EAN134989          SHAMP.CLEAR HIDRATACAO INTENSA 200ML                 UN    7891150008151                                 
88EAN135074          GARRAFA TERMOLAR PERS.1L AZUL                        UN    7891023547794                                 
88EAN135127          BISC.RECH.PRESTIGIO NESTLE 140G                      UN    7891000089231                                 
88EAN135167          GATORADE LIMAO 500ML                                 UN    7892840808037                                 
88EAN135201          FRALDA BIOFRAL CONFORT EG                            UN    7896770900540                                 
88EAN135263          MORT.OURO PERDIGAO 1K                                UN    7891000052631                                 
88EAN135283          FRALDA PERSONAL XG 24UN                              UN    7896110005690                                 
88EAN135284          FRALDA PERSONAL G 28UN                               UN    7896110005669                                 
88EAN135287          SHAMP.CLEAR LIMPESA PROFUNDA 200ML                   UN    7891150019508                                 
88EAN135299          ACHOC.NESQUIK NESTLE 380G                            UN    7891000104101                                 
88EAN135367          CERV.ITAIPAVA 350ML 0,0%                             UN    7897395040390                                 
88EAN135393          CREM.PENTEAR SEDA OLEO HID.300ML                     UN    7891150030756                                 
88EAN135460          LEITE COND.CAMPONESA 395G                            UN    7896259412762                                 
88EAN135461          CREME LEITE CAMPONESA 200G                           UN    7896259411628                                 
88EAN135474          CREM.PENTEAR SEDA KERAFORCE ORIG.                    UN    7891150027541                                 
88EAN135475          CREM.PENTEAR SEDA KERAFORCE QUIMICA                  UN    7891150028135                                 
88EAN135476          CREM.PENTEAR SEDA ANTI-QUEBRA                        UN    7891150031739                                 
88EAN135477          CREM.PENTEAR SEDA ANTI-NOS HID.                      UN    7891150031746                                 
88EAN135486          ROSQUINHA COCO MABEL 800G                            UN    7896071001632                                 
88EAN135497          LING.TOSCANA CONG.SADIA                              UN    7891000054963                                 
88EAN135507          FRANGO CONG.C/MIUDOS SADIA                           UN    7891000055076                                 
88EAN135523          REF.GURANA ANTARCTICA 350ML                          UN    7891991000826                                 
88EAN135607          REF.ANTARCTICA ZERO 2L                               UN    7891991001373                                 
88EAN135631          CERV.ANTARCTICA SUBZERO 12/1                         UN    7891991010030                                 
88EAN135636          BISC.RECH.NEGRESCO NESTLE 140G                       UN    7891000023808                                 
88EAN135639          BIG.CHICKEN PERDIGAO FRANG/QUEIJO 1K                 UN    7891515791179                                 
88EAN135668          ALICATE CUTICULAS MUNDIAL                            UN    7891060679724                                 
88EAN135676          REPELEX AER.FAMILYCARE 200ML                         UN    7891035620003                                 
88EAN135721          SUCO VILMA UVA 240G                                  UN    7896417211077                                 
88EAN135722          SUCO VILMA MARACUJA 240G                             UN    7896417211091                                 
