10192691250001403882209680040 ARMAZEM GIORDANI LTDA - ME         Luz                           MG37342115662020040120200430331
11DOUTOR JOSAPHAT MACEDO            00492                      CENTRO         35595000DARIO                       370034211566
5000004547730644ISENTO        20200401MG550020007705102P000000003573400000000000000000000000000000000000000000000000357340000N
5000004547730644ISENTO        20200401MG550020007705405P000000031400100000000000000000000000000000000000000000000003140010000N
5018423681000328ISENTO        20200427MG550040376711403T000000006111400000000000000000000000000000000000000000000000611140000N
5018423681000328ISENTO        20200427MG550040396391403T000000013146900000000000000000000000000000000000000000000001314690000N
5017466889000108ISENTO        20200427MG550010497151403T000000009150000000000000000000000000000000000000000000000000915000000N
5031565104026648ISENTO        20200427MG550010532091403T000000003389000000000000000000000000000000000000000000000000338900000N
5031565104026648ISENTO        20200427MG550010533791403T000000001890400000000000000000000000000000000000000000000000189040000N
5031565104026648ISENTO        20200427MG550010535521403T000000001665100000000000000000000000000000000000000000000000166510000N
5031565104026648ISENTO        20200427MG550010541891403T000000004568900000000000000000000000000000000000000000000000456890000N
5018810192000167ISENTO        20200427MG550011781181403T000000001060000000000041220000000000742000000000000000000000064781800N
5018810192000167ISENTO        20200427MG550011781181403T000000003930000000000000000000000000000000000000000000000000393000000N
5038596102000194ISENTO        20200427MG550013563831403T000000001520500000000000000000000000000000000000000000000000152050000N
5038596102000194ISENTO        20200427MG550013567251403T000000006275000000000000000000000000000000000000000000000000627500000N
50057651310001831862482410161 20200427MG550013886961403T000000003440000000000133780000000002408000000000000000000000210221800N
50057651310001831862482410161 20200427MG550013886961403T000000002492000000000000000000000000000000000000000000000000249200000N
50057651310001831862482410161 20200427MG550013886971403T000000011951000000000000000000000000000000000000000000000001195100000N
5005694560000107ISENTO        20200427MG550004529731403T000000000208800000000010670000000000192000000000000000000000010211800N
5005694560000107ISENTO        20200427MG550004529731403T000000002492900000000000000000000000000000000000000000000000249290000N
5005694560000107ISENTO        20200427MG550004529741403T000000000474600000000000000000000000000000000000000000000000047460000N
5005694560000107ISENTO        20200427MG550004538761403T000000000225600000000012610000000000227000000000000000000000009951800N
5005694560000107ISENTO        20200427MG550004538761403T000000003169200000000000000000000000000000000000000000000000316920000N
5005694560000107ISENTO        20200427MG550004538771403T000000000180800000000000000000000000000000000000000000000000018080000N
5005694560000107ISENTO        20200427MG550004552011403T000000000138000000000005370000000000097000000000000000000000008431800N
5005694560000107ISENTO        20200427MG550004552011403T000000002369100000000000000000000000000000000000000000000000236910000N
5005017780003200ISENTO        20200427MG550016990691403T000000007408300000000455250000000008195000000000000000000000285581800N
50168492310006190020322880432 20200427MG550016454911403T000000003446400000000141350000000002544000000000000000000000203291800N
5021628516000155ISENTO        20200427MG550056993721403T000000003138900000000000000000000000000000000000000000000000313890000N
50050177800034647201767451978 20200427MG550019512881403T000000000795100000000073550000000001324000000000000000000000005961800N
5005439525000222ISENTO        20200428MG550010111301403T000000011000000000000000000000000000000000000000000000000001100000000N
5005439525000222ISENTO        20200428MG550010111311403T000000045000000000000000000000000000000000000000000000000004500000000N
5005439525000222ISENTO        20200428MG550010111381403T000000038500000000000000000000000000000000000000000000000003850000000N
5005439525000222ISENTO        20200428MG550010111401403T000000012800000000000000000000000000000000000000000000000001280000000N
50344363540001030035099090052 20200428MG550010155461403T000000001413500000000000000000000000000000000000000000000000141350000N
50222777500001480745140770080 20200428MG550010255451403T000000004095600000000238940000000002867000000000000000000000170621200N
5018423681000328ISENTO        20200428MG550040338281403T000000014564200000000000000000000000000000000000000000000001456420000N
5018423681000328ISENTO        20200428MG550040355851403T000000011015100000000000000000000000000000000000000000000001101510000N
50000705090028200628853602685 20200428MG550021672001403T000000000996000000000000000000000000000000000000000000000000099600000N
5018810192000167ISENTO        20200428MG550011787521403T000000002580000000000150500000000001806000000000000000000000107501200N
5018810192000167ISENTO        20200428MG550011787521403T000000002450000000000000000000000000000000000000000000000000245000000N
50040578440001204460981450085 20200428MG550013453101403T000000002070000000000207000000000003726000000000000000000000000001800N
50040578440001204460981450085 20200428MG550013453101403T000000011295000000001129500000000007907000000000000000000000000000700N
50040578440001204460981450085 20200428MG550013453101403T000000001960000000000000000000000000000000000000000000000000196000000N
5038596102000194ISENTO        20200428MG550013556341403T000000001571000000000000000000000000000000000000000000000000157100000N
5038596102000194ISENTO        20200428MG550013559641403T000000001979500000000000000000000000000000000000000000000000197950000N
50057651310001831862482410161 20200428MG550013865711403T000000003806000000000275490000000004959000000000000000000000105111800N
50057651310001831862482410161 20200428MG550013865711403T000000003950000000000230420000000002765000000000000000000000164581200N
50057651310001831862482410161 20200428MG550013865711403T000000013038000000000000000000000000000000000000000000000001303800000N
5005694560000107ISENTO        20200428MG550004559521403T000000000448800000000025120000000000452000000000000000000000019761800N
5005694560000107ISENTO        20200428MG550004559521403T000000002244500000000000000000000000000000000000000000000000224450000N
5005694560000107ISENTO        20200428MG550004559531403T000000000338700000000000000000000000000000000000000000000000033870000N
5019592641000100ISENTO        20200428MG550015071871403T000000003932600000000393260000000007079000000000000000000000000001800N
5019592641000100ISENTO        20200428MG550015071871403T000000008412600000000000000000000000000000000000000000000000841260000N
5007399636000105ISENTO        20200428MG550045180091403T000000004859800000000311530000000003738000000000000000000000174451200N
5005017780003200ISENTO        20200428MG550016778911403T000000006927600000000400640000000007212000000000000000000000292121800N
5005017780003200ISENTO        20200428MG550016861101403T000000006282100000000359100000000006464000000000000000000000269111800N
5005017780003200ISENTO        20200428MG550016921801403T000000006945500000000401110000000007220000000000000000000000293441800N
50168492310006190020322880432 20200428MG550016336691403T000000002968800000000143050000000002575000000000000000000000153831800N
50168492310006190020322880432 20200428MG550016393311403T000000002332800000000000000000000000000000000000000000000000233280000N
50168492310006190020322880432 20200428MG550016393321403T000000002341400000000198450000000003572000000000000000000000035691800N
5021628516000155ISENTO        20200428MG550056887131403T000000000693600000000069360000000001248000000000000000000000000001800N
5021628516000155ISENTO        20200428MG550056887131403T000000002613200000000000000000000000000000000000000000000000261320000N
5021628516000155ISENTO        20200428MG550056929761403T000000003082400000000000000000000000000000000000000000000000308240000N
5021628516000155ISENTO        20200428MG550057029771403T000000008535000000000000000000000000000000000000000000000000853500000N
5007399636000105ISENTO        20200428MG550018032881403T000000008778800000000569220000000006831000000000000000000000308661200N
50050177800034647201767451978 20200428MG550019445901403T000000000824500000000076270000000001373000000000000000000000006181800N
50050177800034647201767451978 20200428MG550019445901403T000000000570000000000000000000000000000000000000000000000000057000000N
50050177800034647201767451978 20200428MG550019477531403T000000000900900000000083340000000001500000000000000000000000006751800N
5001838723019499ISENTO        20200428MG550024140381403T000000004545700000000387690000000006978000000000000000000000066881800N
5100004547730644ISENTO        20200401MG00200077051020000000035734000000000000000000000000000000000035734                    N
5100004547730644ISENTO        20200401MG00200077054050000000314001000000000000000000000000000000000314001                    N
5118423681000328ISENTO        20200427MG00403767114030000000061114000000000000000000000000000000000061114                    N
5118423681000328ISENTO        20200427MG00403963914030000000131469000000000000000000000000000000000131469                    N
5117466889000108ISENTO        20200427MG00104971514030000000091500000000000000000000000000000000000091500                    N
5131565104026648ISENTO        20200427MG00105320914030000000033890000000000000000000000000000000000033890                    N
5131565104026648ISENTO        20200427MG00105337914030000000018904000000000000000000000000000000000018904                    N
5131565104026648ISENTO        20200427MG00105355214030000000016651000000000000000000000000000000000016651                    N
5131565104026648ISENTO        20200427MG00105418914030000000045689000000000000000000000000000000000045689                    N
5118810192000167ISENTO        20200427MG00117811814030000000049900000000000000000000000000000000000049900                    N
5138596102000194ISENTO        20200427MG00135638314030000000015205000000000000000000000000000000000015205                    N
5138596102000194ISENTO        20200427MG00135672514030000000062750000000000000000000000000000000000062750                    N
51057651310001831862482410161 20200427MG00138869614030000000059320000000000000000000000000000000000059320                    N
51057651310001831862482410161 20200427MG00138869714030000000119510000000000000000000000000000000000119510                    N
5105694560000107ISENTO        20200427MG00045297314030000000027017000000000000000000000000000000000027017                    N
5105694560000107ISENTO        20200427MG00045297414030000000004746000000000000000000000000000000000004746                    N
5105694560000107ISENTO        20200427MG00045387614030000000033948000000000000000000000000000000000033948                    N
5105694560000107ISENTO        20200427MG00045387714030000000001808000000000000000000000000000000000001808                    N
5105694560000107ISENTO        20200427MG00045520114030000000025071000000000000000000000000000000000025071                    N
5105017780003200ISENTO        20200427MG00169906914030000000074083000000000000000000000000000000000074083                    N
51168492310006190020322880432 20200427MG00164549114030000000034464000000000000000000000000000000000034464                    N
5121628516000155ISENTO        20200427MG00569937214030000000031389000000000000000000000000000000000031389                    N
51050177800034647201767451978 20200427MG00195128814030000000007951000000000000000000000000000000000007951                    N
5105439525000222ISENTO        20200428MG00101113014030000000110000000000000000000000000000000000000110000                    N
5105439525000222ISENTO        20200428MG00101113114030000000450000000000000000000000000000000000000450000                    N
5105439525000222ISENTO        20200428MG00101113814030000000385000000000000000000000000000000000000385000                    N
5105439525000222ISENTO        20200428MG00101114014030000000128000000000000000000000000000000000000128000                    N
51344363540001030035099090052 20200428MG00101554614030000000014135000000000000000000000000000000000014135                    N
51222777500001480745140770080 20200428MG00102554514030000000040956000000000000000000000000000000000040956                    N
5118423681000328ISENTO        20200428MG00403382814030000000145642000000000000000000000000000000000145642                    N
5118423681000328ISENTO        20200428MG00403558514030000000110151000000000000000000000000000000000110151                    N
51000705090028200628853602685 20200428MG00216720014030000000009960000000000000000000000000000000000009960                    N
5118810192000167ISENTO        20200428MG00117875214030000000050300000000000000000000000000000000000050300                    N
51040578440001204460981450085 20200428MG00134531014030000000153250000000000000000000000000000000000153250                    N
5138596102000194ISENTO        20200428MG00135563414030000000015710000000000000000000000000000000000015710                    N
5138596102000194ISENTO        20200428MG00135596414030000000019795000000000000000000000000000000000019795                    N
51057651310001831862482410161 20200428MG00138657114030000000207940000000000000000000000000000000000207940                    N
5105694560000107ISENTO        20200428MG00045595214030000000026933000000000000000000000000000000000026933                    N
5105694560000107ISENTO        20200428MG00045595314030000000003387000000000000000000000000000000000003387                    N
5119592641000100ISENTO        20200428MG00150718714030000000123452000000000000000000000000000000000123452                    N
5107399636000105ISENTO        20200428MG00451800914030000000047493000000000000000000000000000000000047493                    N
5105017780003200ISENTO        20200428MG00167789114030000000069276000000000000000000000000000000000069276                    N
5105017780003200ISENTO        20200428MG00168611014030000000062821000000000000000000000000000000000062821                    N
5105017780003200ISENTO        20200428MG00169218014030000000069455000000000000000000000000000000000069455                    N
51168492310006190020322880432 20200428MG00163366914030000000029688000000000000000000000000000000000029688                    N
51168492310006190020322880432 20200428MG00163933114030000000023328000000000000000000000000000000000023328                    N
51168492310006190020322880432 20200428MG00163933214030000000023414000000000000000000000000000000000023414                    N
5121628516000155ISENTO        20200428MG00568871314030000000033068000000000000000000000000000000000033068                    N
5121628516000155ISENTO        20200428MG00569297614030000000030824000000000000000000000000000000000030824                    N
5121628516000155ISENTO        20200428MG00570297714030000000085350000000000000000000000000000000000085350                    N
5107399636000105ISENTO        20200428MG00180328814030000000087004000000000000000000000000000000000087004                    N
51050177800034647201767451978 20200428MG00194459014030000000013945000000000000000000000000000000000013945                    N
51050177800034647201767451978 20200428MG00194775314030000000009009000000000000000000000000000000000009009                    N
5101838723019499ISENTO        20200428MG00241403814030000000045457000000000000000000000000000000000045457                    N
5305017780003200ISENTO        20200427MG550016990691403T000000007773600000000057980000000000000N1                             
53050177800034647201767451978 20200427MG550019512881403T000000001066500000000005960000000000000N1                             
5331565104026648ISENTO        20200427MG550010533791403T000000002489700000000013140000000000000N1                             
5331565104026648ISENTO        20200427MG550010535521403T000000002154800000000010760000000000000N1                             
5331565104026648ISENTO        20200427MG550010541891403T000000005962600000000030630000000000000N1                             
53168492310006190020322880432 20200427MG550016454911403T000000002164800000000013510000000000000N1                             
5305017780003200ISENTO        20200428MG550016778911403T000000006554300000000045870000000000000N1                             
5305017780003200ISENTO        20200428MG550016861101403T000000006014100000000043620000000000000N1                             
5305017780003200ISENTO        20200428MG550016921801403T000000006565000000000045950000000000000N1                             
53050177800034647201767451978 20200428MG550019445901403T000000001105900000000006180000000000000N1                             
53050177800034647201767451978 20200428MG550019477531403T000000001208400000000006750000000000000N1                             
5307399636000105ISENTO        20200428MG550018032881403T000000009412300000000160080000000000000N1                             
5307399636000105ISENTO        20200428MG550045180091403T000000005515100000000100490000000000000N1                             
5301838723019499ISENTO        20200428MG550024140381403T000000005233800000000024420000000000000N1                             
53168492310006190020322880432 20200428MG550016336691403T000000002526800000000019740000000000000N1                             
53168492310006190020322880432 20200428MG550016393321403T000000002858500000000015740000000000000N1                             
5400070509002820550021672001403060001004097        000000010000000000099600000000000000000000000000000000000000000000000000000
5401838723019499550024140381403070001003528        000000010000000000127400000000000000000000084940000000114670000000000001800
5401838723019499550024140381403010002000083        000000020000000000218400000000000000000000218400000000294840000000000001800
5401838723019499550024140381403010003000848        000000010000000000084350000000000000000000084350000000113870000000000001800
5404057844000120550013453101403060001004087        000000020000000000049000000000000000000000000000000000000000000000000000000
5404057844000120550013453101403060002004088        000000010000000000024500000000000000000000000000000000000000000000000000000
5404057844000120550013453101403060003004089        000000010000000000024500000000000000000000000000000000000000000000000000000
5404057844000120550013453101403060004004090        000000010000000000024500000000000000000000000000000000000000000000000000000
5404057844000120550013453101403060005004091        000000010000000000024500000000000000000000000000000000000000000000000000000
5404057844000120550013453101403060006004092        000000010000000000024500000000000000000000000000000000000000000000000000000
5404057844000120550013453101403060007004093        000000010000000000024500000000000000000000000000000000000000000000000000000
5404057844000120550013453101403000008004086        000000050000000000194500000000000000000000194500000000000000000000000000700
5404057844000120550013453101403000009003893        000000020000000000051200000000000000000000051200000000000000000000000001800
5404057844000120550013453101403000010001007        000000020000000000155800000000000000000000155800000000000000000000000001800
5404057844000120550013453101403000011004094        000000100000000000935000000000000000000000935000000000000000000000000000700
5400004547730644550020007705102102001001109        000000230000000000027600000000000000000000000000000000000000000000000000000
5400004547730644550020007705405500002000470        000000200000000000078000000000000010000000000000000000000000000000000000000
5400004547730644550020007705405500003001097        000000200000000000078000000000000010000000000000000000000000000000000000000
5400004547730644550020007705405500004000469        000001000000000000390000000000000060000000000000000000000000000000000000000
5400004547730644550020007705405500005000550        000000200000000000078000000000000010000000000000000000000000000000000000000
5400004547730644550020007705405500006000552        000000400000000000136000000000000020000000000000000000000000000000000000000
5400004547730644550020007705405500007001094        000000400000000000136000000000000020000000000000000000000000000000000000000
5400004547730644550020007705405500008000056        000000800000000000272000000000000040000000000000000000000000000000000000000
5400004547730644550020007705405500009001103        000000120000000000072000000000000010000000000000000000000000000000000000000
5400004547730644550020007705405500010001503        000000100000000000320000000000000050000000000000000000000000000000000000000
5400004547730644550020007705405500011001098        000000200000000000068000000000000010000000000000000000000000000000000000000
5400004547730644550020007705102102012003841        000000200000000000120000000000000020000000000000000000000000000000000000000
5400004547730644550020007705405500013000267        000000120000000000252000000000000040000000000000000000000000000000000000000
5400004547730644550020007705405500014001484        000000300000000000135000000000000020000000000000000000000000000000000000000
5400004547730644550020007705405500015001420        000000300000000000054000000000000010000000000000000000000000000000000000000
5400004547730644550020007705405500016002192        000000250000000000112500000000000020000000000000000000000000000000000000000
5400004547730644550020007705102102017003694        000000250000000000037500000000000010000000000000000000000000000000000000000
5400004547730644550020007705102102018003665        000000110000000000036300000000000010000000000000000000000000000000000000000
5400004547730644550020007705102102019003282        000000170000000000136000000000000020000000000000000000000000000000000000000
5400004547730644550020007705405500020003195        000000120000000000030000000000000000000000000000000000000000000000000000000
5400004547730644550020007705405500021001092        000000200000000000098000000000000020000000000000000000000000000000000000000
5400004547730644550020007705405500022003330        000000210000000000231000000000000040000000000000000000000000000000000000000
5400004547730644550020007705405500023000335        000000600000000000300000000000000050000000000000000000000000000000000000000
5400004547730644550020007705405500024000427        000001000000000000300000000000000050000000000000000000000000000000000000000
5405017780003200550016778911403070001003604        000000010000000000063490000000000000000000042330000000057140000000000001800
5405017780003200550016778911403010002000848        000000010000000000147440000000000000000000098300000000199040000000000001800
5405017780003200550016778911403070003000135        000000010000000000110280000000000000000000042890000000049320000000000001800
5405017780003200550016778911403070004000040        000000010000000000134400000000000000000000089600000000120970000000000001800
5405017780003200550016778911403070005000034        000000010000000000065040000000000000000000043360000000058540000000000001800
5405017780003200550016778911403070006003997        000000010000000000126240000000000000000000084160000000170420000000000001800
5405017780003200550016861101403070001003997        000000010000000000130320000000000000000000086880000000175930000000000001800
5405017780003200550016861101403070002000135        000000010000000000110280000000000000000000042890000000049320000000000001800
5405017780003200550016861101403010003000848        000000010000000000147900000000000000000000098600000000199670000000000001800
5405017780003200550016861101403070004003604        000000010000000000063490000000000000000000042330000000057140000000000001800
5405017780003200550016861101403070005000040        000000010000000000132600000000000000000000088400000000119350000000000001800
5405017780003200550016921801403010001000848        000000010000000000147440000000000000000000098300000000199040000000000001800
5405017780003200550016921801403070002003604        000000010000000000063360000000000000000000042240000000057030000000000001800
5405017780003200550016921801403070003003997        000000010000000000127600000000000000000000085070000000172260000000000001800
5405017780003200550016921801403070004000034        000000010000000000065040000000000000000000043360000000058540000000000001800
5405017780003200550016921801403070005000040        000000010000000000132480000000000000000000088320000000119240000000000001800
5405017780003200550016921801403070006000135        000000010000000000112680000000000000000000043820000000050390000000000001800
5405017780003200550016990691403070001003604        000000010000000000063230000000000000000000042160000000056910000000000001800
5405017780003200550016990691403070002000034        000000020000000000125520000000000000000000083680000000112970000000000001800
5405017780003200550016990691403070003003997        000000020000000000249760000000000000000000166510000000337180000000000001800
5405017780003200550016990691403010004000848        000000010000000000075240000000000000000000050160000000101570000000000001800
5405017780003200550016990691403070005000033        000000010000000000018370000000000000000000012250000000024800000000000001800
5405017780003200550016990691403070006004081        000000010000000000018370000000000000000000012250000000024800000000000001800
5405017780003200550016990691403070007000040        000000010000000000132360000000000000000000088240000000119130000000000001800
5405017780003464550019445901403110001003980        000000010000000000076270000000000000000000076270000000110590000000000001800
5405017780003464550019445901403060002003998        000000010000000000057000000000000000000000000000000000000000000000000000000
5405017780003464550019477531403110001004085        000000010000000000083340000000000000000000083340000000120840000000000001800
5405017780003464550019512881403110001003980        000000010000000000073550000000000000000000073550000000106650000000000001800
5405439525000222550010111301403240001004131        000000050000000001100000000000000000000000000000000000000000000000000000000
5405439525000222550010111311403040001004085        000000300000000003000000000000000000000000000000000000000000000000000000000
5405439525000222550010111311403040002004103        000000300000000001500000000000000000000000000000000000000000000000000000000
5405439525000222550010111381403040001004085        000000400000000002300000000000000000000000000000000000000000000000000000000
5405439525000222550010111381403040002004104        000000050000000000550000000000000000000000000000000000000000000000000000000
5405439525000222550010111381403040003004105        000000200000000001000000000000000000000000000000000000000000000000000000000
5405439525000222550010111401403040001004106        000000060000000001200000000000000000000000000000000000000000000000000000000
5405439525000222550010111401403040002004105        000000020000000000080000000000000000000000000000000000000000000000000000000
5405694560000107550004529731403060001003595        000000040000000000030760000000000000000000000000000000000000000000000000000
5405694560000107550004529731403060002003596        000000010000000000007690000000000000000000000000000000000000000000000000000
5405694560000107550004529731403060003003357        000000020000000000006140000000000000000000000000000000000000000000000000000
5405694560000107550004529731403020004002575        000000040000000000011680000000000000000000004540000000000000000000000001800
5405694560000107550004529731403020005001729        000000020000000000009200000000000000000000006130000000000000000000000001800
5405694560000107550004529731403060006002347        000000060000000000011520000000000000000000000000000000000000000000000000000
5405694560000107550004529731403060007002347        000000020000000000015380000000000000000000000000000000000000000000000000000
5405694560000107550004529731403060008000139        000000030000000000013830000000000000000000000000000000000000000000000000000
5405694560000107550004529731403060009000072        000000240000000000033120000000000000000000000000000000000000000000000000000
5405694560000107550004529731403060010002803        000000060000000000009240000000000000000000000000000000000000000000000000000
5405694560000107550004529731403060011003077        000000030000000000006450000000000000000000000000000000000000000000000000000
5405694560000107550004529731403060012003630        000000050000000000007700000000000000000000000000000000000000000000000000000
5405694560000107550004529731403060013000150        000000540000000000113400000000005940000000000000000000000000000000000000000
5405694560000107550004529741403060001003974        000000040000000000017520000000000000000000000000000000000000000000000000000
5405694560000107550004529741403060002004006        000000040000000000019960000000000000000000000000000000000000000000000000000
5405694560000107550004529741403060003003519        000000020000000000009980000000000000000000000000000000000000000000000000000
5405694560000107550004538761403060001000157        000000040000000000006120000000000000000000000000000000000000000000000000000
5405694560000107550004538761403060002003595        000000040000000000030760000000000000000000000000000000000000000000000000000
5405694560000107550004538761403060003003596        000000030000000000023070000000000000000000000000000000000000000000000000000
5405694560000107550004538761403060004000153        000000040000000000030760000000000000000000000000000000000000000000000000000
5405694560000107550004538761403060005003432        000000060000000000010080000000000000000000000000000000000000000000000000000
5405694560000107550004538761403020006002575        000000030000000000008760000000000000000000003410000000000000000000000001800
5405694560000107550004538761403060007000183        000000030000000000032760000000000000000000000000000000000000000000000000000
5405694560000107550004538761403020008001729        000000030000000000013800000000000000000000009200000000000000000000000001800
5405694560000107550004538761403060009002347        000000030000000000023070000000000000000000000000000000000000000000000000000
5405694560000107550004538761403060010001982        000000020000000000015380000000000000000000000000000000000000000000000000000
5405694560000107550004538761403060011000139        000000020000000000009220000000000000000000000000000000000000000000000000000
5405694560000107550004538761403060012000072        000000280000000000038640000000000000000000000000000000000000000000000000000
5405694560000107550004538761403060013003077        000000030000000000006450000000000000000000000000000000000000000000000000000
5405694560000107550004538761403060014002635        000000060000000000026280000000000000000000000000000000000000000000000000000
5405694560000107550004538761403060015003629        000000050000000000007700000000000000000000000000000000000000000000000000000
5405694560000107550004538761403060016003629        000000050000000000007700000000000000000000000000000000000000000000000000000
5405694560000107550004538761403060017003633        000000050000000000007700000000000000000000000000000000000000000000000000000
5405694560000107550004538761403060018003630        000000050000000000007700000000000000000000000000000000000000000000000000000
5405694560000107550004538761403060019003631        000000030000000000008970000000000000000000000000000000000000000000000000000
5405694560000107550004538761403060020004078        000000010000000000024560000000000000000000000000000000000000000000000000000
5405694560000107550004538771403060001003925        000000020000000000011360000000000000000000000000000000000000000000000000000
5405694560000107550004538771403060002003432        000000040000000000006720000000000000000000000000000000000000000000000000000
5405694560000107550004552011403060001000157        000000040000000000006120000000000000000000000000000000000000000000000000000
5405694560000107550004552011403060002003595        000000040000000000030760000000000000000000000000000000000000000000000000000
5405694560000107550004552011403060003000153        000000020000000000015380000000000000000000000000000000000000000000000000000
5405694560000107550004552011403060004003359        000000010000000000003070000000000000000000000000000000000000000000000000000
5405694560000107550004552011403020005002575        000000040000000000013800000000000000000000005370000000000000000000000001800
5405694560000107550004552011403060006000070        000000030000000000009180000000000000000000000000000000000000000000000000000
5405694560000107550004552011403060007002347        000000040000000000007680000000000000000000000000000000000000000000000000000
5405694560000107550004552011403060008002347        000000020000000000015380000000000000000000000000000000000000000000000000000
5405694560000107550004552011403060009001982        000000010000000000007690000000000000000000000000000000000000000000000000000
5405694560000107550004552011403060010000139        000000020000000000009220000000000000000000000000000000000000000000000000000
5405694560000107550004552011403060011000072        000000120000000000016560000000000000000000000000000000000000000000000000000
5405694560000107550004552011403060012003930        000000060000000000011040000000000000000000000000000000000000000000000000000
5405694560000107550004552011403060013003928        000000060000000000011040000000000000000000000000000000000000000000000000000
5405694560000107550004552011403060014003929        000000060000000000011040000000000000000000000000000000000000000000000000000
5405694560000107550004552011403060015003629        000000050000000000007700000000000000000000000000000000000000000000000000000
5405694560000107550004552011403060016003629        000000050000000000007700000000000000000000000000000000000000000000000000000
5405694560000107550004552011403060017003633        000000050000000000007700000000000000000000000000000000000000000000000000000
5405694560000107550004552011403060018003630        000000050000000000007700000000000000000000000000000000000000000000000000000
5405694560000107550004552011403060019003631        000000050000000000014950000000000000000000000000000000000000000000000000000
5405694560000107550004552011403060020003399        000000050000000000009250000000000000000000000000000000000000000000000000000
5405694560000107550004552011403060021003398        000000050000000000009250000000000000000000000000000000000000000000000000000
5405694560000107550004552011403060022003456        000000050000000000009250000000000000000000000000000000000000000000000000000
5405694560000107550004552011403060023003457        000000050000000000009250000000000000000000000000000000000000000000000000000
5405694560000107550004559521403060001003053        000000020000000000006140000000000000000000000000000000000000000000000000000
5405694560000107550004559521403060002000157        000000040000000000006120000000000000000000000000000000000000000000000000000
5405694560000107550004559521403060003003595        000000020000000000015380000000000000000000000000000000000000000000000000000
5405694560000107550004559521403060004000153        000000020000000000015380000000000000000000000000000000000000000000000000000
5405694560000107550004559521403060005000070        000000030000000000009180000000000000000000000000000000000000000000000000000
5405694560000107550004559521403020006001729        000000060000000000027600000000000000000000018400000000000000000000000001800
5405694560000107550004559521403060007002347        000000030000000000005760000000000000000000000000000000000000000000000000000
5405694560000107550004559521403060008002347        000000010000000000007690000000000000000000000000000000000000000000000000000
5405694560000107550004559521403060009001982        000000010000000000007690000000000000000000000000000000000000000000000000000
5405694560000107550004559521403060010001853        000000040000000000005520000000000000000000000000000000000000000000000000000
5405694560000107550004559521403060011000139        000000030000000000013830000000000000000000000000000000000000000000000000000
5405694560000107550004559521403060012000072        000000400000000000055200000000000000000000000000000000000000000000000000000
5405694560000107550004559521403060013004084        000000030000000000017970000000000000000000000000000000000000000000000000000
5405694560000107550004559521403060014002803        000000060000000000011520000000000000000000000000000000000000000000000000000
5405694560000107550004559521403060015002948        000000060000000000011520000000000000000000000000000000000000000000000000000
5405694560000107550004559521403060016003077        000000060000000000012900000000000000000000000000000000000000000000000000000
5405694560000107550004559521403020017002873        000000030000000000017280000000000000000000006720000000000000000000000001800
5405694560000107550004559521403060018003629        000000050000000000007700000000000000000000000000000000000000000000000000000
5405694560000107550004559521403060019003631        000000050000000000014950000000000000000000000000000000000000000000000000000
5405694560000107550004559531403060001003357        000000020000000000006140000000000000000000000000000000000000000000000000000
5405694560000107550004559531403060002003974        000000030000000000013140000000000000000000000000000000000000000000000000000
5405694560000107550004559531403060003003889        000000010000000000003070000000000000000000000000000000000000000000000000000
5405694560000107550004559531403060004002350        000000020000000000008460000000000000000000000000000000000000000000000000000
5405694560000107550004559531403060005000181        000000020000000000003060000000000000000000000000000000000000000000000000000
5405765131000183550013865711403060001003468        000000180000000000265500000000000000000000000000000000000000000000000000000
5405765131000183550013865711403060002004125        000000010000000000028700000000000000000000000000000000000000000000000000000
5405765131000183550013865711403060003004126        000000010000000000028700000000000000000000000000000000000000000000000000000
5405765131000183550013865711403060004004127        000000010000000000028700000000000000000000000000000000000000000000000000000
5405765131000183550013865711403060005004128        000000010000000000028700000000000000000000000000000000000000000000000000000
5405765131000183550013865711403060006004129        000000010000000000028700000000000000000000000000000000000000000000000000000
5405765131000183550013865711403060007003931        000000010000000000146000000000000000000000000000000000000000000000000000000
5405765131000183550013865711403060008003759        000000010000000000129200000000000000000000000000000000000000000000000000000
5405765131000183550013865711403060009000749        000000060000000000157200000000000000000000000000000000000000000000000000000
5405765131000183550013865711403060010004130        000000020000000000052400000000000000000000000000000000000000000000000000000
5405765131000183550013865711403020011002204        000000020000000000172000000000000000000000066890000000000000000000000001800
5405765131000183550013865711403020012004124        000000050000000000395000000000000000000000230420000000000000000000000001200
5405765131000183550013865711403040013004060        000000100000000000410000000000000000000000000000000000000000000000000000000
5405765131000183550013865711403000014004059        000000010000000000113800000000000000000000113800000000000000000000000001800
5405765131000183550013865711403000015004059        000000010000000000094800000000000000000000094800000000000000000000000001800
5405765131000183550013886961403020001002204        000000600000000000344000000000000000000000133780000000000000000000000001800
5405765131000183550013886961403040002004060        000000600000000000178000000000000000000000000000000000000000000000000000000
5405765131000183550013886961403040003003663        000000240000000000071200000000000000000000000000000000000000000000000000000
5405765131000183550013886971403060001000749        000000200000000000524000000000000000000000000000000000000000000000000000000
5405765131000183550013886971403060002000749        000000010000000000118000000000000000000000000000000000000000000000000000000
5405765131000183550013886971403060003000749        000000010000000000077000000000000000000000000000000000000000000000000000000
5405765131000183550013886971403060004003931        000000010000000000146000000000000000000000000000000000000000000000000000000
5405765131000183550013886971403060005004080        000000020000000000066800000000000000000000000000000000000000000000000000000
5405765131000183550013886971403060006001420        000000020000000000066800000000000000000000000000000000000000000000000000000
5405765131000183550013886971403060007000466        000000030000000000043500000000000000000000000000000000000000000000000000000
5405765131000183550013886971403040008004074        000000010000000000153000000000000000000000000000000000000000000000000000000
5407399636000105550018032881403510001003859        000000060000000000040970000000000000000000031020000000056030000000000001200
5407399636000105550018032881403510002003860        000000060000000000040970000000000000000000031020000000056030000000000001200
5407399636000105550018032881403510003000347        000000060000000000040970000000000000000000031020000000056030000000000001200
5407399636000105550018032881403510004003863        000000060000000000040970000000000000000000031020000000056030000000000001200
5407399636000105550018032881403510005004098        000000060000000000040970000000000000000000031020000000056030000000000001200
5407399636000105550018032881403510006000351        000000060000000000040970000000000000000000031020000000056030000000000001200
5407399636000105550018032881403510007003791        000000060000000000040970000000000000000000031020000000056030000000000001200
5407399636000105550018032881403510008003729        000000010000000000091200000000000000000000074520000000099800000000000001200
5407399636000105550018032881403010009004099        000000060000000000033600000000002460000000026340000000042630000000000001200
5407399636000105550018032881403010010003864        000000060000000000033600000000002460000000026340000000042630000000000001200
5407399636000105550018032881403010011003865        000000060000000000033600000000002460000000026340000000042630000000000001200
5407399636000105550018032881403010012004100        000000060000000000033600000000002460000000026340000000042630000000000001200
5407399636000105550018032881403010013000375        000000060000000000033600000000002460000000026340000000042630000000000001200
5407399636000105550018032881403010014003867        000000060000000000033600000000002460000000026340000000042630000000000001200
5407399636000105550018032881403010015002789        000000060000000000033600000000002460000000026340000000042630000000000001200
5407399636000105550018032881403010016000236        000000060000000000033600000000002460000000026340000000042630000000000001200
5407399636000105550018032881403010017003869        000000060000000000033600000000002460000000026340000000042630000000000001200
5407399636000105550018032881403010018004101        000000060000000000033600000000000000000000026340000000042630000000000001200
5407399636000105550018032881403010019004102        000000030000000000019550000000001440000000014160000000022920000000000001200
5407399636000105550045180091403510001003906        000000060000000000052280000000000000000000044880000000079450000000000001200
5407399636000105550045180091403510002001284        000000060000000000044050000000000000000000037500000000066390000000000001200
5407399636000105550045180091403510003002788        000000050000000000036710000000000000000000031250000000055320000000000001200
5407399636000105550045180091403510004002788        000000060000000000044050000000000000000000037500000000066390000000000001200
5407399636000105550045180091403510005000950        000000050000000000036710000000000000000000031250000000055320000000000001200
5407399636000105550045180091403010006002788        000000040000000000029360000000000000000000025000000000044260000000000001200
5407399636000105550045180091403510007004095        000000050000000000036710000000000000000000031250000000055320000000000001200
5407399636000105550045180091403010008000622        000000050000000000023100000000000000000000020250000000035850000000000001200
5407399636000105550045180091403010009001840        000000010000000000004630000000000000000000004050000000007170000000000001200
5407399636000105550045180091403010010000533        000000060000000000027720000000000000000000024300000000043020000000000001200
5407399636000105550045180091403010011004096        000000060000000000039120000000000000000000024300000000043020000000000001200
5416849231000619550016336691403070001003819        000000160000000000053760000000001140000000020460000000027180000000000001800
5416849231000619550016336691403070002003643        000000060000000000040260000000000850000000015330000000020350000000000001800
5416849231000619550016336691403070003003626        000000120000000000059400000000001260000000022610000000030030000000000001800
5416849231000619550016336691403070004000581        000000120000000000062040000000001310000000040490000000083750000000000001800
5416849231000619550016336691403070005003627        000000120000000000067680000000001440000000044160000000091370000000000001800
5416849231000619550016393311403040001001110        000000600000000000194400000000000000000000000000000000000000000000000000000
5416849231000619550016393311403040002001111        000000120000000000038880000000000000000000000000000000000000000000000000000
5416849231000619550016393321403070001003624        000000080000000000032640000000000000000000012690000000016500000000000001800
5416849231000619550016393321403010002004107        000000180000000000185760000000000000000000185760000000269350000000000001800
5416849231000619550016454911403070001001832        000000060000000000009000000000000180000000005880000000012150000000000001800
5416849231000619550016454911403070002003819        000000080000000000026880000000000520000000010250000000013590000000000001800
5416849231000619550016454911403070003003813        000000040000000000019800000000000390000000007550000000010010000000000001800
5416849231000619550016454911403070004004079        000000120000000000056040000000001090000000021370000000028330000000000001800
5416849231000619550016454911403070005002960        000000060000000000026280000000000510000000010020000000016860000000000001800
5416849231000619550016454911403070006003815        000000060000000000040380000000000790000000015400000000021200000000000001800
5416849231000619550016454911403070007003815        000000060000000000095220000000001850000000036310000000049990000000000001800
5416849231000619550016454911403070008003814        000000040000000000026920000000000530000000010260000000014130000000000001800
5416849231000619550016454911403070009002847        000000060000000000037200000000000730000000024310000000050220000000000001800
5417466889000108550010497151403040001000056        000000150000000000570000000000000000000000000000000000000000000000000000000
5417466889000108550010497151403240002000053        000000030000000000345000000000000000000000000000000000000000000000000000000
5418423681000328550040338281403060001000130        000000300000000000824660000000000000000000000000000000000000000000000000000
5418423681000328550040338281403060002003820        000000100000000000315880000000000000000000000000000000000000000000000000000
5418423681000328550040338281403060003003601        000000100000000000315880000000000000000000000000000000000000000000000000000
5418423681000328550040355851403060001000130        000000400000000001101510000000000000000000000000000000000000000000000000000
5418423681000328550040376711403060001003820        000000100000000000305570000000000000000000000000000000000000000000000000000
5418423681000328550040376711403060002003601        000000100000000000305570000000000000000000000000000000000000000000000000000
5418423681000328550040396391403060001000130        000000200000000000550760000000000000000000000000000000000000000000000000000
5418423681000328550040396391403060002003820        000000150000000000458360000000000000000000000000000000000000000000000000000
5418423681000328550040396391403060003003601        000000100000000000305570000000000000000000000000000000000000000000000000000
5418810192000167550011781181403060001001009        000000020000000000168000000000000000000000000000000000000000000000000000000
5418810192000167550011781181403060002000327        000000020000000000130000000000000000000000000000000000000000000000000000000
5418810192000167550011781181403060003000463        000000240000000000051000000000000000000000000000000000000000000000000000000
5418810192000167550011781181403060004000463        000000120000000000044000000000000000000000000000000000000000000000000000000
5418810192000167550011781181403020005000329        000000600000000000064000000000000000000000024890000000000000000000000001800
5418810192000167550011781181403020006003999        000000600000000000042000000000000000000000016330000000000000000000000001800
5418810192000167550011787521403060001000294        000000010000000000051000000000000000000000000000000000000000000000000000000
5418810192000167550011787521403020002000411        000000180000000000258000000000000000000000150500000000000000000000000001200
5418810192000167550011787521403060003000463        000000480000000000102000000000000000000000000000000000000000000000000000000
5418810192000167550011787521403060004000463        000000240000000000092000000000000000000000000000000000000000000000000000000
5419592641000100550015071871403060001004109        000000030000000000011190000000000000000000000000000000000000000000000000000
5419592641000100550015071871403060002004110        000000030000000000011190000000000000000000000000000000000000000000000000000
5419592641000100550015071871403060003004112        000000030000000000011190000000000000000000000000000000000000000000000000000
5419592641000100550015071871403060004004111        000000030000000000011190000000000000000000000000000000000000000000000000000
5419592641000100550015071871403060005004113        000000020000000000006680000000000000000000000000000000000000000000000000000
5419592641000100550015071871403060006004114        000000020000000000006680000000000000000000000000000000000000000000000000000
5419592641000100550015071871403060007004115        000000030000000000010020000000000000000000000000000000000000000000000000000
5419592641000100550015071871403060008000837        000000060000000000028680000000000000000000000000000000000000000000000000000
5419592641000100550015071871403060009002148        000000060000000000041400000000000000000000000000000000000000000000000000000
5419592641000100550015071871403060010003377        000000020000000000056120000000000000000000000000000000000000000000000000000
5419592641000100550015071871403260011004117        000000040000000000130920000000000000000000000000000000000000000000000000000
5419592641000100550015071871403260012004118        000000080000000000208720000000000000000000000000000000000000000000000000000
5419592641000100550015071871403060013004119        000000120000000000269880000000000000000000000000000000000000000000000000000
5419592641000100550015071871403060014004121        000000100000000000037400000000000000000000000000000000000000000000000000000
5419592641000100550015071871403500015004108        000000060000000000042540000000000000000000042540000000000000000000000001800
5419592641000100550015071871403000016004116        000000040000000000026160000000000000000000026160000000000000000000000001800
5419592641000100550015071871403000017004120        000000060000000000042300000000000000000000042300000000000000000000000001800
5419592641000100550015071871403500018004123        000000020000000000143260000000000000000000143260000000000000000000000001800
5419592641000100550015071871403500019004122        000000100000000000139000000000000000000000139000000000000000000000000001800
5421628516000155550056887131403060001001591        000000060000000000015540000000000000000000000000000000000000000000000000000
5421628516000155550056887131403060002003879        000000160000000000021280000000000000000000000000000000000000000000000000000
5421628516000155550056887131403060003001817        000000330000000000053790000000000000000000000000000000000000000000000000000
5421628516000155550056887131403060004003254        000000220000000000031680000000000000000000000000000000000000000000000000000
5421628516000155550056887131403060005003651        000000150000000000031050000000000000000000000000000000000000000000000000000
5421628516000155550056887131403560006000699        000000500000000000059500000000000000000000000000000000000000000000000000000
5421628516000155550056887131403060007001965        000000240000000000048480000000000000000000000000000000000000000000000000000
5421628516000155550056887131403500008002121        000000680000000000069360000000000000000000069360000000000000000000000001800
5421628516000155550056929761403060001002023        000000060000000000015900000000000000000000000000000000000000000000000000000
5421628516000155550056929761403060002002848        000000250000000000029750000000000000000000000000000000000000000000000000000
5421628516000155550056929761403560003001588        000000250000000000029750000000000000000000000000000000000000000000000000000
5421628516000155550056929761403060004003403        000000220000000000031680000000000000000000000000000000000000000000000000000
5421628516000155550056929761403060005003919        000000150000000000031050000000000000000000000000000000000000000000000000000
5421628516000155550056929761403060006002768        000000320000000000141760000000000000000000000000000000000000000000000000000
5421628516000155550056929761403060007001338        000000210000000000028350000000000000000000000000000000000000000000000000000
5421628516000155550056993721403060001003857        000000120000000000036120000000000000000000000000000000000000000000000000000
5421628516000155550056993721403060002003952        000000250000000000029750000000000000000000000000000000000000000000000000000
5421628516000155550056993721403560003001011        000000250000000000029750000000000000000000000000000000000000000000000000000
5421628516000155550056993721403560004000699        000000250000000000029750000000000000000000000000000000000000000000000000000
5421628516000155550056993721403560005001589        000000250000000000029750000000000000000000000000000000000000000000000000000
5421628516000155550056993721403060006003268        000000120000000000027240000000000000000000000000000000000000000000000000000
5421628516000155550056993721403060007001210        000000200000000000034400000000000000000000000000000000000000000000000000000
5421628516000155550056993721403060008001209        000000200000000000034400000000000000000000000000000000000000000000000000000
5421628516000155550056993721403060009003442        000000150000000000031050000000000000000000000000000000000000000000000000000
5421628516000155550056993721403060010003403        000000220000000000031680000000000000000000000000000000000000000000000000000
5421628516000155550057029771403060001001716        000001200000000000682800000000000000000000000000000000000000000000000000000
5421628516000155550057029771403060002004007        000000300000000000170700000000000000000000000000000000000000000000000000000
5422277750000148550010255451403020001001920        000000010000000000101230000000000000000000059060000000000000000000000001200
5422277750000148550010255451403020002003462        000000010000000000080420000000000000000000046920000000000000000000000001200
5422277750000148550010255451403020003001919        000000030000000000111900000000000000000000065280000000000000000000000001200
5422277750000148550010255451403020004001918        000000030000000000116010000000000000000000067680000000000000000000000001200
5431565104026648550010532091403500001000694        000000100000000000021400000000000000000000000000000000000000000000000000000
5431565104026648550010532091403500002002759        000000100000000000035600000000000000000000000000000000000000000000000000000
5431565104026648550010532091403500003000696        000000150000000000053400000000000000000000000000000000000000000000000000000
5431565104026648550010532091403500004000697        000000150000000000041550000000000000000000000000000000000000000000000000000
5431565104026648550010532091403500005000694        000000150000000000032100000000000000000000000000000000000000000000000000000
5431565104026648550010532091403500006000694        000000100000000000021400000000000000000000000000000000000000000000000000000
5431565104026648550010532091403500007000698        000000150000000000021150000000000000000000000000000000000000000000000000000
5431565104026648550010532091403500008002762        000000100000000000014100000000000000000000000000000000000000000000000000000
5431565104026648550010532091403500009002762        000000150000000000021150000000000000000000000000000000000000000000000000000
5431565104026648550010532091403500010002760        000000200000000000028200000000000000000000000000000000000000000000000000000
5431565104026648550010532091403500011000697        000000100000000000027700000000000000000000000000000000000000000000000000000
5431565104026648550010532091403500012002762        000000150000000000021150000000000000000000000000000000000000000000000000000
5431565104026648550010533791403500001000694        000000050000000000010700000000000000000000000000000000015140000000000000000
5431565104026648550010533791403500002000696        000000100000000000035600000000000000000000000000000000050390000000000000000
5431565104026648550010533791403500003000697        000000150000000000041550000000000000000000000000000000058810000000000000000
5431565104026648550010533791403500004000694        000000050000000000010700000000000000000000000000000000015140000000000000000
5431565104026648550010533791403500005000698        000000100000000000014100000000000000000000000000000000019960000000000000000
5431565104026648550010533791403500006002762        000000150000000000021150000000000000000000000000000000029940000000000000000
5431565104026648550010533791403500007002760        000000050000000000007050000000000000000000000000000000009980000000000000000
5431565104026648550010533791403500008002762        000000100000000000014100000000000000000000000000000000019960000000000000000
5431565104026648550010533791403500009000698        000000050000000000007050000000000000000000000000000000009980000000000000000
5431565104026648550010533791403500010001157        000000100000000000013900000000000000000000000000000000019670000000000000000
5431565104026648550010535521403500001000696        000000150000000000053400000000000000000000000000000000073880000000000000000
5431565104026648550010535521403500002000697        000000100000000000027700000000000000000000000000000000038320000000000000000
5431565104026648550010535521403500003000694        000000150000000000032100000000000000000000000000000000044410000000000000000
5431565104026648550010535521403500004000698        000000100000000000014100000000000000000000000000000000019510000000000000000
5431565104026648550010535521403500005002762        000000050000000000007050000000000000000000000000000000009750000000000000000
5431565104026648550010535521403500006000694        000000100000000000021400000000000000000000000000000000029610000000000000000
5431565104026648550010541891403102001003630        000000150000000000053400000000000000000000000000000000074700000000000000000
5431565104026648550010541891403500002000697        000000020000000000013520000000000000000000000000000000018910000000000000000
5431565104026648550010541891403500003000694        000000050000000000034950000000000000000000000000000000048890000000000000000
5431565104026648550010541891403500004000698        000000050000000000024650000000000000000000000000000000034480000000000000000
5431565104026648550010541891403500005002762        000000050000000000024650000000000000000000000000000000034480000000000000000
5431565104026648550010541891403500006002884        000000020000000000009960000000000000000000000000000000013930000000000000000
5431565104026648550010541891403500007002884        000000030000000000014940000000000000000000000000000000020900000000000000000
5431565104026648550010541891403500008000694        000000030000000000014940000000000000000000000000000000020900000000000000000
5431565104026648550010541891403500009000694        000000050000000000024900000000000000000000000000000000034830000000000000000
5431565104026648550010541891403500010000697        000000100000000000048300000000000000000000000000000000067560000000000000000
5431565104026648550010541891403500011000696        000000050000000000017800000000000000000000000000000000024900000000000000000
5431565104026648550010541891403500012000696        000000050000000000017800000000000000000000000000000000024900000000000000000
5431565104026648550010541891403500013000697        000000150000000000041550000000000000000000000000000000058120000000000000000
5431565104026648550010541891403500014000694        000000050000000000010700000000000000000000000000000000014970000000000000000
5431565104026648550010541891403500015000698        000000150000000000021150000000000000000000000000000000029590000000000000000
5431565104026648550010541891403500016002762        000000050000000000007050000000000000000000000000000000009860000000000000000
5431565104026648550010541891403500017002762        000000050000000000007050000000000000000000000000000000009860000000000000000
5431565104026648550010541891403500018002884        000000050000000000017800000000000000000000000000000000024900000000000000000
5431565104026648550010541891403500019002762        000000150000000000021150000000000000000000000000000000029590000000000000000
5434436354000103550010155461403060001003984        000000010000000000016250000000000000000000000000000000000000000000000000000
5434436354000103550010155461403060002004132        000000010000000000041700000000000000000000000000000000000000000000000000000
5434436354000103550010155461403060003004133        000000010000000000041700000000000000000000000000000000000000000000000000000
5434436354000103550010155461403060004004134        000000010000000000041700000000000000000000000000000000000000000000000000000
5438596102000194550013556341403060001003746        000000030000000000119700000000000000000000000000000000000000000000000000000
5438596102000194550013556341403060002003936        000000010000000000037400000000000000000000000000000000000000000000000000000
5438596102000194550013559641403060001003745        000000010000000000032350000000000000000000000000000000000000000000000000000
5438596102000194550013559641403060002003746        000000030000000000119700000000000000000000000000000000000000000000000000000
5438596102000194550013559641403060003003764        000000030000000000045900000000000000000000000000000000000000000000000000000
5438596102000194550013563831403060001003745        000000010000000000032350000000000000000000000000000000000000000000000000000
5438596102000194550013563831403060002003746        000000030000000000119700000000000000000000000000000000000000000000000000000
5438596102000194550013567251403060001003745        000000010000000000032350000000000000000000000000000000000000000000000000000
5438596102000194550013567251403060002003746        000000040000000000159600000000000000000000000000000000000000000000000000000
5438596102000194550013567251403060003003738        000000010000000000039950000000000000000000000000000000000000000000000000000
5438596102000194550013567251403060004004082        000000010000000000039950000000000000000000000000000000000000000000000000000
5438596102000194550013567251403060005004083        000000010000000000039950000000000000000000000000000000000000000000000000000
5438596102000194550013567251403060006003764        000000030000000000045900000000000000000000000000000000000000000000000000000
5438596102000194550013567251403060007003738        000000010000000000013000000000000000000000000000000000000000000000000000000
5438596102000194550013567251403060008003743        000000050000000000131000000000000000000000000000000000000000000000000000000
5438596102000194550013567251403060009003829        000000020000000000062900000000000000000000000000000000000000000000000000000
5438596102000194550013567251403060010003830        000000020000000000062900000000000000000000000000000000000000000000000000000
61                            2020041165D    00122400122500000000192000000000000000000000000000000000000000000000000000001800 
61                            2020040165D    00122600123800000001219450000000000000000000000000000000000000000000000000000000 
61                            2020040265D    00123900124800000001471750000000000000000000000000000000000000000000000000000000 
61                            2020040365D    00124900125300000001135000000000000000000000000000000000000000000000000000000000 
61                            2020040465D    00125400126500000003731550000000000000000000000000000000000000000000000000000000 
61                            2020040665D    00126600127600000001270330000000000000000000000000000000000000000000000000000000 
61                            2020040765D    00127700128800000001901250000000000000000000000000000000000000000000000000000000 
61                            2020040865D    00128900128900000000080000000000000000000000000000000000000000000000000000000000 
61                            2020041165D    00129000129000000000110000000000000000000000000000000000000000000000000000000000 
61                            2020040865D    00129100129200000000342800000000000000000000000000000000000000000000000000000000 
61                            2020040965D    00129300129300000000240000000000000000000000000000000000000000000000000000000000 
61                            2020041165D    00129400131000000001854380000000000000000000000000000000000000000000000000000000 
61                            2020041365D    00131100131800000001009860000000000000000000000000000000000000000000000000000000 
61                            2020041365D    00132000132000000000051340000000000000000000000000000000000000000000000000001800 
61                            2020041365D    00132100132100000000286000000000000000000000000000000000000000000000000000000000 
61                            2020041365D    00132200132300000000251700000000000000000000000000000000000000000000000000001800 
61                            2020041365D    00132400132800000000814460000000000000000000000000000000000000000000000000000000 
61                            2020041465D    00132900132900000000260000000000000000000000000000000000000000000000000000000000 
61                            2020041465D    00133000133000000000115000000000000000000000000000000000000000000000000000001800 
61                            2020041465D    00133100133700000000741600000000000000000000000000000000000000000000000000000000 
61                            2020041565D    00133800134300000001426000000000000000000000000000000000000000000000000000000000 
61                            2020041665D    00134500134700000000411650000000000000000000000000000000000000000000000000000000 
61                            2020041665D    00134800134800000000120000000000000000000000000000000000000000000000000000001800 
61                            2020041665D    00134900135500000000672250000000000000000000000000000000000000000000000000000000 
61                            2020041765D    00135700135700000000130000000000000000000000000000000000000000000000000000000000 
61                            2020041865D    00135800136300000001707500000000000000000000000000000000000000000000000000000000 
61                            2020041865D    00136400136400000000060000000000000000000000000000000000000000000000000000001800 
61                            2020041865D    00136500136900000000741300000000000000000000000000000000000000000000000000000000 
61                            2020042065D    00137000137800000001065550000000000000000000000000000000000000000000000000000000 
61                            2020042265D    00137900139800000002525630000000000000000000000000000000000000000000000000000000 
61                            2020042365D    00139900141100000001703120000000000000000000000000000000000000000000000000000000 
61                            2020042465D    00141200141200000000240000000000000000000000000000000000000000000000000000000000 
61                            2020042565D    00141300142000000002703500000000000000000000000000000000000000000000000000000000 
61                            2020042765D    00142100142800000001376650000000000000000000000000000000000000000000000000000000 
61                            2020042865D    00142900144100000001397600000000000000000000000000000000000000000000000000000000 
61                            2020042965D    00144200145600000001738850000000000000000000000000000000000000000000000000000000 
61                            2020042965D    00145700145700000000080000000000000000000000000000000000000000000000000000001800 
61                            2020042965D    00145800145800000000091640000000000000000000000000000000000000000000000000000000 
61                            2020043065D    00145900146500000000638150000000000000000000000000000000000000000000000000000000 
61                            2020043065D    00146600146600000000072000000000000000000000000000000000000000000000000000001800 
61                            2020043065D    00146700147300000001632950000000000000000000000000000000000000000000000000000000 
61R042020000040        0000000031000000000000004030000000000000000000000                                                      
61R042020000044        0000000006000000000000000210000000000000000000000                                                      
61R042020000055        0000000050000000000000004500000000000000000000000                                                      
61R042020000056        0000001235000000000000029640000000000000000000000                                                      
61R042020000070        0000000006000000000000000099000000000000000000000                                                      
61R042020000077        0000000002000000000000000290000000000000000000000                                                      
61R042020000087        0000000085000000000000001190000000000000000000000                                                      
61R042020000130        0000000012000000000000000360000000000000000000000                                                      
61R042020000133        0000000006000000000000000270000000000000000000000                                                      
61R042020000134        0000000009000000000000000540000000000000000000000                                                      
61R042020000135        0000000006000000000000000840000000000000000000000                                                      
61R042020000139        0000000023000000000000000966000000000000000000000                                                      
61R042020000151        0000000018000000000000000252000000000000000000000                                                      
61R042020000181        0000000017000000000000000338300000000000000000000                                                      
61R042020000183        0000000007000000000000000993300000000000000000000                                                      
61R042020000190        0000000016000000000000000800000000000000000000000                                                      
61R042020000267        0000000028000000000000003360000000000000000000000                                                      
61R042020000280        0000000223000000000000005575000000000000000000000                                                      
61R042020000290        0000000597000000000000031044000000000000000000000                                                      
61R042020000295        0000000023000000000000001840000000000000000000000                                                      
61R042020000327        0000000032000000000000000928000000000000000000000                                                      
61R042020000330        0000000042000000000000001470000000000000000000000                                                      
61R042020000335        0000000110000000000000002970000000000000000000000                                                      
61R042020000413        0000000060000000000000001080000000000000000000000                                                      
61R042020000414        0000000022000000000000000990000000000000000000000                                                      
61R042020000427        0000000700000000000000011900000000000000000000000                                                      
61R042020000430        0000000099000000000000001980000000000000000000000                                                      
61R042020000464        0000000013000000000000001170000000000000000000000                                                      
61R042020000472        0000000046000000000000002070000000000000000000000                                                      
61R042020000567        0000000048000000000000000528000000000000000000000                                                      
61R042020000657        0000000078000000000000004290000000000000000000000                                                      
61R042020000711        0000000020000000000000001400000000000000000000000                                                      
61R042020000744        0000000058000000000000003480000000000000000000000                                                      
61R042020000746        0000000004000000000000003400000000000000000000000                                                      
61R042020000749        0000000036000000000000007920000000000000000000000                                                      
61R042020000794        0000000058000000000000002465000000000000000000000                                                      
61R042020000830        0000000020000000000000001300000000000000000000000                                                      
61R042020000831        0000000013000000000000000435500000000000000000000                                                      
61R042020000848        0000000015000000000000001500000000000000000000000                                                      
61R042020000854        0000000050000000000000001900000000000000000000000                                                      
61R042020000906        0000000021000000000000001680000000000000000000000                                                      
61R042020001007        0000000015000000000000000900000000000000000000000                                                      
61R042020001011        0000000050000000000000000500000000000000000000000                                                      
61R042020001019        0000000005000000000000000450000000000000000000000                                                      
61R042020001081        0000000021000000000000000315000000000000000000000                                                      
61R042020001098        0000000186000000000000003162000000000000000000000                                                      
61R042020001099        0000000098250000000000001670300000000000000000000                                                      
61R042020001103        0000000014000000000000000840000000000000000000000                                                      
61R042020001178        0000000012000000000000000390000000000000000000000                                                      
61R042020001196        0000000100000000000000001700000000000000000000000                                                      
61R042020001205        0000000015000000000000000600000000000000000000000                                                      
61R042020001208        0000000074000000000000001036000000000000000000000                                                      
61R042020001210        0000000059000000000000000855500000000000000000000                                                      
61R042020001213        0000000035000000000000002677500000000000000000000                                                      
61R042020001238        0000000012000000000000001200000000000000000000000                                                      
61R042020001244        0000000025000000000000001050000000000000000000000                                                      
61R042020001302        0000000015000000000000002550000000000000000000000                                                      
61R042020001332        0000000084000000000000002940000000000000000000000                                                      
61R042020001333        0000000017000000000000000595000000000000000000000                                                      
61R042020001334        0000000052000000000000001820000000000000000000000                                                      
61R042020001336        0000000100000000000000001000000000000000000000000                                                      
61R042020001340        0000000001000000000000000029000000000000000000000                                                      
61R042020001371        0000000008000000000000000560000000000000000000000                                                      
61R042020001408        0000000004000000000000000240000000000000000000000                                                      
61R042020001411        0000000043000000000000001161000000000000000000000                                                      
61R042020001415        0000000001000000000000000040000000000000000000000                                                      
61R042020001416        0000000011000000000000000440000000000000000000000                                                      
61R042020001420        0000000220000000000000002640000000000000000000000                                                      
61R042020001423        0000000172000000000000004300000000000000000000000                                                      
61R042020001434        0000000001000000000000000020000000000000000000000                                                      
61R042020001440        0000000036000000000000002160000000000000000000000                                                      
61R042020001448        0000000037000000000000001572500000000000000000000                                                      
61R042020001449        0000000075000000000000003150000000000000000000000                                                      
61R042020001492        0000000025000000000000000337500000000000000000000                                                      
61R042020001660        0000000059000000000000002153500000000000000000000                                                      
61R042020001664        0000000040000000000000000920000000000000000000000                                                      
61R042020001669        0000000025000000000000000412500000000000000000000                                                      
61R042020001719        0000000005000000000000000165000000000000000000000                                                      
61R042020001729        0000000017000000000000001020000000000000000000000                                                      
61R042020001860        0000000038000000000000000456000000000000000000000                                                      
61R042020001870        0000000010000000000000000700000000000000000000000                                                      
61R042020001916        0000000041000000000000000676500000000000000000000                                                      
61R042020001917        0000000045000000000000001710000000000000000000000                                                      
61R042020001918        0000000200000000000000003200000000000000000000000                                                      
61R042020001932        0000000025000000000000000475000000000000000000000                                                      
61R042020001933        0000000047000000000000000893000000000000000000000                                                      
61R042020001937        0000000125000000000000006250000000000000000000000                                                      
61R042020001939        0000000068000000000000001156000000000000000000000                                                      
61R042020001965        0000000067000000000000001809000000000000000000000                                                      
61R042020001982        0000000004000000000000000280000000000000000000000                                                      
61R042020002006        0000000055000000000000001705000000000000000000000                                                      
61R042020002029        0000000012000000000000000480000000000000000000000                                                      
61R042020002034        0000000026000000000000000689000000000000000000000                                                      
61R042020002153        0000000031000000000000000496000000000000000000000                                                      
61R042020002163        0000000022000000000000001100000000000000000000000                                                      
61R042020002201        0000000080000000000000003120000000000000000000000                                                      
61R042020002204        0000000435000000000000022620000000000000000000000                                                      
61R042020002296        0000000049000000000000000735000000000000000000000                                                      
61R042020002300        0000000012000000000000002400000000000000000000000                                                      
61R042020002307        0000000069000000000000002277000000000000000000000                                                      
61R042020002347        0000000025000000000000001875000000000000000000000                                                      
61R042020002350        0000000005000000000000000350000000000000000000000                                                      
61R042020002399        0000000036000000000000002520000000000000000000000                                                      
61R042020002404        0000000013000000000000000260000000000000000000000                                                      
61R042020002426        0000000025000000000000000875000000000000000000000                                                      
61R042020002461        0000000019000000000000001045000000000000000000000                                                      
61R042020002564        0000000014000000000000002100000000000000000000000                                                      
61R042020002583        0000000069000000000000003933000000000000000000000                                                      
61R042020002586        0000000014000000000000000798000000000000000000000                                                      
61R042020002626        0000000019000000000000001330000000000000000000000                                                      
61R042020002641        0000000023000000000000000598000000000000000000000                                                      
61R042020002686        0000000024000000000000000960000000000000000000000                                                      
61R042020002690        0000000052000000000000002860000000000000000000000                                                      
61R042020002701        0000000062000000000000004650000000000000000000000                                                      
61R042020002734        0000000026000000000000000910000000000000000000000                                                      
61R042020002750        0000000002000000000000000076000000000000000000000                                                      
61R042020002768        0000000022000000000000000990000000000000000000000                                                      
61R042020002810        0000000019000000000000000285000000000000000000000                                                      
61R042020002849        0000000017000000000000000085000000000000000000000                                                      
61R042020002857        0000000001000000000000000035000000000000000000000                                                      
61R042020002865        0000000012000000000000001740000000000000000000000                                                      
61R042020002960        0000000021000000000000000684600000000000000000000                                                      
61R042020003008        0000000001000000000000000150000000000000000000000                                                      
61R042020003053        0000000002000000000000000100000000000000000000000                                                      
61R042020003054        0000000038000000000000000627000000000000000000000                                                      
61R042020003086        0000000054000000000000001782000000000000000001800                                                      
61R042020003099        0000000042000000000000001218000000000000000000000                                                      
61R042020003103        0000000015000000000000001275000000000000000000000                                                      
61R042020003141        0000000025000000000000001250000000000000000000000                                                      
61R042020003150        0000000023000000000000001150000000000000000001800                                                      
61R042020003201        0000000025000000000000000372500000000000000000000                                                      
61R042020003222        0000000008000000000000000960000000000000000000000                                                      
61R042020003277        0000000073000000000000000985500000000000000000000                                                      
61R042020003282        0000000119000000000000003570000000000000000000000                                                      
61R042020003315        0000000017000000000000000513400000000000000001800                                                      
61R042020003316        0000000035000000000000000735000000000000000001800                                                      
61R042020003323        0000000050000000000000000750000000000000000000000                                                      
61R042020003324        0000000005000000000000000800000000000000000001800                                                      
61R042020003330        0000000179000000000000016110000000000000000000000                                                      
61R042020003350        0000000110000000000000011000000000000000000000000                                                      
61R042020003354        0000000017000000000000003230000000000000000000000                                                      
61R042020003357        0000000024000000000000000736800000000000000000000                                                      
61R042020003403        0000000100000000000000002000000000000000000000000                                                      
61R042020003424        0000000007000000000000000980000000000000000000000                                                      
61R042020003432        0000000017000000000000000351900000000000000000000                                                      
61R042020003442        0000000090000000000000002025000000000000000000000                                                      
61R042020003468        0000000197000000000000003112600000000000000000000                                                      
61R042020003516        0000000111000000000000004440000000000000000000000                                                      
61R042020003527        0000000012000000000000001680000000000000000000000                                                      
61R042020003551        0000000031000000000000001379500000000000000000000                                                      
61R042020003572        0000000012000000000000000639600000000000000000000                                                      
61R042020003595        0000000057000000000000005124300000000000000000000                                                      
61R042020003596        0000000012000000000000001078800000000000000000000                                                      
61R042020003601        0000000039000000000000001365000000000000000000000                                                      
61R042020003614        0000000040000000000000002800000000000000000000000                                                      
61R042020003615        0000000001000000000000000050000000000000000000000                                                      
61R042020003629        0000000110000000000000002640000000000000000001800                                                      
61R042020003630        0000000075000000000000001800000000000000000001800                                                      
61R042020003631        0000000066000000000000002475000000000000000000000                                                      
61R042020003651        0000000063000000000000001417500000000000000000000                                                      
61R042020003660        0000000006000000000000000540000000000000000000000                                                      
61R042020003686        0000000121000000000000013915000000000000000000000                                                      
61R042020003723        0000000034000000000000001190000000000000000000000                                                      
61R042020003726        0000000001000000000000000200000000000000000000000                                                      
61R042020003740        0000000007000000000000000140000000000000000000000                                                      
61R042020003745        0000000024000000000000000717600000000000000000000                                                      
61R042020003757        0000000030000000000000001800000000000000000000000                                                      
61R042020003764        0000000027000000000000000540000000000000000000000                                                      
61R042020003776        0000000008000000000000000560000000000000000000000                                                      
61R042020003796        0000000001000000000000000000100000000000000000000                                                      
61R042020003801        0000000007000000000000000098000000000000000000000                                                      
61R042020003846        0000000035000000000000001750000000000000000000000                                                      
61R042020003889        0000000005000000000000000249500000000000000000000                                                      
752020040120200430000033        16029000FLIP BURGER                                          UN    000000000000000000000000000
752020040120200430000034        16010000LINGUICA TIPO CALABRESA RETA SADIA 3G                KG    000000000000000000000000000
752020040120200430000040        16010000LINGUICA CARNE SUINA CHURRASCO PIF PAF               KG    000000000000000000000000000
752020040120200430000044        22030000BRAHMA CHOPP LATA 350 ML                             LT    000000000000000000000000000
752020040120200430000053        08083000PERA                                                 KG    000000000000000000000000000
752020040120200430000055        08081000MA ARGENTINA                                       KG    000000000000000000000000000
752020040120200430000056        08051000LARANJA PERA EXTRA                                   KG    000000000000000000000000000
752020040120200430000070        04039000CORPUS BREAK MORANGO 170                             UN    000000000000000000000000000
752020040120200430000072        04061090DANONINHO MORANGO 80G QJ PETIT SUISSE                UN    000000000000000000000000000
752020040120200430000077        04039000CORPUS FAM MORANGO 900                               UN    000000000000000000000000000
752020040120200430000083        16010000MORTADELA DEFUMADA SADIA                             KG    000000000000000000000000000
752020040120200430000087        04100000DANETTE CHOC BRANCO                                  UN    000000000000000000000000000
752020040120200430000130        22030000ANTARCTICA SUBZERO LATA 473ML                        LT    000000000000000000000000000
752020040120200430000133        22021000SODA LIMONADA ANTARCTICA PET 1,5L                    L     000000000000000000000000000
752020040120200430000134        22030000ANTARCTICA SUBZERO 600ML                             ML    000000000000000000000000000
752020040120200430000135        02071400FILE DE PEITO BDJ 1KG                                KG    000000000000000000000000000
752020040120200430000139        04061090DANONINHO LEITE FERMENTADO 450G                      UN    000000000000000000000000000
752020040120200430000150        04013021CREME DE LEITE UHT PAULISTA                          UN    000000000000000000000000000
752020040120200430000151        04100000DANETTE CHOCOLATE 220                                UN    000000000000000000000000000
752020040120200430000153        04031000ACTIVIA LIQ MORANGO 850G                             UN    000000000000000000000000000
752020040120200430000157        04039000ACTIVIA LIQ AMEIXA LTE FERM 150G                     UN    000000000000000000000000000
752020040120200430000181        04039000ACTIVIA LIQ MORANGO 150G                             UN    000000000000000000000000000
752020040120200430000183        04039000CORPUS morango 850                                   UN    000000000000000000000000000
752020040120200430000190        34022000SABAO EM PO OMO MT  ACAO 500 GR                      GR    000000000000000000000000000
752020040120200430000236        33051000SH SEDA 350ML-FR PTO LUMIN                           UN    000000000000000000000000000
752020040120200430000267        10063021ARROZ PRATO FINO T 1 5 KG                            PCT   000000000000000000000000000
752020040120200430000280        11010010FARINHA DE TRIGO BOA SORTE 1 KG                      KG    000000000000000000000000000
752020040120200430000290        11081400POLVILHO AMAFIL DOCE 1 KG                            KG    000000000000000000000000000
752020040120200430000294        34029039LIMPA AZULEJO AZULIM TRAD LAVANDA 1 LT               LT    000000000000000000000000000
752020040120200430000295        10063021ARROZ BENF LEAO T 1 5 KG                             PCT   000000000000000000000000000
752020040120200430000327        48181000PAPEL HIG BOB NEUTRO 60 MT                           UN    000000000000000000000000000
752020040120200430000329        25010020SAL REF MOC 1 KG                                     KG    000000000000000000000000000
752020040120200430000330        28289011AGUA SANITARIA Q BOA 2 LT                            LT    000000000000000000000000000
752020040120200430000335        15079011OLEO SOJA ABC 900 ML                                 UN    000000000000000000000000000
752020040120200430000347        33059000CO SEDA 350 ML - FR LISO EXTREMO                     UN    000000000000000000000000000
752020040120200430000351        33059000CO SEDA 350 ML - FR PTO LUMINOSOS                    UN    000000000000000000000000000
752020040120200430000375        33051000SH SEDA 350 ML - FR LISO EXREMO                      UN    000000000000000000000000000
752020040120200430000411        10063021ARROZ CODIL AGULINHA T 1 5 KG                        PCT   000000000000000000000000000
752020040120200430000413        28289011AGUA SANITARIA Q BOA 1 LT                            UN    000000000000000000000000000
752020040120200430000414        19021900MACARRAO MARA AZUL N  5 - 1 KG                       UN    000000000000000000000000000
752020040120200430000427        20052000BATATA LISA AGATHA ESPECIAL                          KG    000000000000000000000000000
752020040120200430000430        19021100MACARRAO S AMALIA ESPAG N  8 - 500 G                 UN    000000000000000000000000000
752020040120200430000463        28289011AGUA SANITARIA MARINA 1 L                            UN    000000000000000000000000000
752020040120200430000464        10063021ARROZ BENF. LEAO PLUS 5 KG                           PCT   000000000000000000000000000
752020040120200430000466        73231000ESPONJA DE LA DE ACO BOMBRIL                         PCT   000000000000000000000000000
752020040120200430000469        07020000TOMATE LONGA VIDA EXTRA A                            KG    000000000000000000000000000
752020040120200430000470        07149000INHAME DEDO EXTRA                                    KG    000000000000000000000000000
752020040120200430000472        38099190AMAC R YPE ACONCHEGO AZUL CLARO                      UN    000000000000000000000000000
752020040120200430000533        33072010DES ROL REXONA 50 ML MAS V 8                         UN    000000000000000000000000000
752020040120200430000550        07049000REPOLHO HIBRIDO                                      KG    000000000000000000000000000
752020040120200430000552        12129100BETERRABA SEM FOLHAS EXTRA                           KG    000000000000000000000000000
752020040120200430000567        34022000DETERGENTE YPE LIMAO                                 UN    000000000000000000000000000
752020040120200430000581        04061090REQUEIJAO COPO 0,220 KG                              UN    000000000000000000000000000
752020040120200430000622        33072010DES ROL REXONA 30ML MAS ACTIVE                       UN    000000000000000000000000000
752020040120200430000657        08081000MA GALA EMBALADA                                   KG    000000000000000000000000000
752020040120200430000694        20052000RUFFLES 100 G                                        UN    000000000000000000000000000
752020040120200430000696        20052000SENSAES 45G                                        UN    000000000000000000000000000
752020040120200430000697        19059090DORITOS 55G                                          UN    000000000000000000000000000
752020040120200430000698        19041000FANDANGOS 66 G                                       UN    000000000000000000000000000
752020040120200430000699        19023000LAMEN GALINHA CAIPIRA 85G - NISSIN                   UN    000000000000000000000000000
